{
  "_format": "hh-sol-artifact-1",
  "contractName": "Router",
  "sourceName": "contracts/periphery/Router.sol",
  "abi": [
    {
      "inputs": [
        {
          "internalType": "address",
          "name": "_factoryAddr",
          "type": "address"
        }
      ],
      "stateMutability": "nonpayable",
      "type": "constructor"
    },
    {
      "inputs": [
        {
          "internalType": "address",
          "name": "tokenA",
          "type": "address"
        },
        {
          "internalType": "address",
          "name": "tokenB",
          "type": "address"
        },
        {
          "internalType": "uint256",
          "name": "amountADesired",
          "type": "uint256"
        },
        {
          "internalType": "uint256",
          "name": "amountBDesired",
          "type": "uint256"
        },
        {
          "internalType": "uint256",
          "name": "amountAMin",
          "type": "uint256"
        },
        {
          "internalType": "uint256",
          "name": "amountBMin",
          "type": "uint256"
        }
      ],
      "name": "depositLiquidity",
      "outputs": [
        {
          "internalType": "uint256",
          "name": "amountA",
          "type": "uint256"
        },
        {
          "internalType": "uint256",
          "name": "amountB",
          "type": "uint256"
        }
      ],
      "stateMutability": "nonpayable",
      "type": "function"
    },
    {
      "inputs": [],
      "name": "factoryAddr",
      "outputs": [
        {
          "internalType": "address",
          "name": "",
          "type": "address"
        }
      ],
      "stateMutability": "view",
      "type": "function"
    }
  ],
  "bytecode": "0x60a060405234801561001057600080fd5b50604051611049380380611049833981810160405281019061003291906100cf565b8073ffffffffffffffffffffffffffffffffffffffff1660808173ffffffffffffffffffffffffffffffffffffffff1681525050506100fc565b600080fd5b600073ffffffffffffffffffffffffffffffffffffffff82169050919050565b600061009c82610071565b9050919050565b6100ac81610091565b81146100b757600080fd5b50565b6000815190506100c9816100a3565b92915050565b6000602082840312156100e5576100e461006c565b5b60006100f3848285016100ba565b91505092915050565b608051610f1f61012a60003960008181608c0152818160ef015281816101a6015261024c0152610f1f6000f3fe608060405234801561001057600080fd5b50600436106100365760003560e01c8063963671be1461003b578063fbb7169e14610059575b600080fd5b61004361008a565b60405161005091906105ce565b60405180910390f35b610073600480360381019061006e9190610650565b6100ae565b6040516100819291906106ec565b60405180910390f35b7f000000000000000000000000000000000000000000000000000000000000000081565b6000806100bf8888888888886100d2565b8092508193505050965096945050505050565b600080600073ffffffffffffffffffffffffffffffffffffffff167f000000000000000000000000000000000000000000000000000000000000000073ffffffffffffffffffffffffffffffffffffffff1663b7faf78d8a8a6040518363ffffffff1660e01b8152600401610148929190610715565b602060405180830381865afa158015610165573d6000803e3d6000fd5b505050506040513d601f19601f820116820180604052508101906101899190610753565b73ffffffffffffffffffffffffffffffffffffffff1603610244577f000000000000000000000000000000000000000000000000000000000000000073ffffffffffffffffffffffffffffffffffffffff1663c729dfcf89896040518363ffffffff1660e01b81526004016101ff929190610715565b6020604051808303816000875af115801561021e573d6000803e3d6000fd5b505050506040513d601f19601f820116820180604052508101906102429190610753565b505b6000806102727f00000000000000000000000000000000000000000000000000000000000000008b8b6102a3565b915091506000821480156102865750600081145b1561029657878780945081955050505b5050965096945050505050565b60008060006102b285856103a4565b5090506000806102c38888886104d0565b73ffffffffffffffffffffffffffffffffffffffff16630902f1ac6040518163ffffffff1660e01b81526004016040805180830381865afa15801561030c573d6000803e3d6000fd5b505050506040513d601f19601f8201168201806040525081019061033091906107c6565b6dffffffffffffffffffffffffffff1691506dffffffffffffffffffffffffffff1691508273ffffffffffffffffffffffffffffffffffffffff168773ffffffffffffffffffffffffffffffffffffffff161461038e578082610391565b81815b8095508196505050505050935093915050565b6000808273ffffffffffffffffffffffffffffffffffffffff168473ffffffffffffffffffffffffffffffffffffffff1603610415576040517f08c379a000000000000000000000000000000000000000000000000000000000815260040161040c90610863565b60405180910390fd5b8273ffffffffffffffffffffffffffffffffffffffff168473ffffffffffffffffffffffffffffffffffffffff161061044f578284610452565b83835b8092508193505050600073ffffffffffffffffffffffffffffffffffffffff168273ffffffffffffffffffffffffffffffffffffffff16036104c9576040517f08c379a00000000000000000000000000000000000000000000000000000000081526004016104c0906108cf565b60405180910390fd5b9250929050565b60008060006104df85856103a4565b91509150600082826040516020016104f8929190610715565b60405160208183030381529060405280519060200120905060006040518060200161052290610580565b6020820181038252601f19601f82011660405250905060ff60f81b8883838051906020012060405160200161055a94939291906109af565b6040516020818303038152906040528051906020012060001c9450505050509392505050565b6104ec806109fe83390190565b600073ffffffffffffffffffffffffffffffffffffffff82169050919050565b60006105b88261058d565b9050919050565b6105c8816105ad565b82525050565b60006020820190506105e360008301846105bf565b92915050565b600080fd5b6105f7816105ad565b811461060257600080fd5b50565b600081359050610614816105ee565b92915050565b6000819050919050565b61062d8161061a565b811461063857600080fd5b50565b60008135905061064a81610624565b92915050565b60008060008060008060c0878903121561066d5761066c6105e9565b5b600061067b89828a01610605565b965050602061068c89828a01610605565b955050604061069d89828a0161063b565b94505060606106ae89828a0161063b565b93505060806106bf89828a0161063b565b92505060a06106d089828a0161063b565b9150509295509295509295565b6106e68161061a565b82525050565b600060408201905061070160008301856106dd565b61070e60208301846106dd565b9392505050565b600060408201905061072a60008301856105bf565b61073760208301846105bf565b9392505050565b60008151905061074d816105ee565b92915050565b600060208284031215610769576107686105e9565b5b60006107778482850161073e565b91505092915050565b60006dffffffffffffffffffffffffffff82169050919050565b6107a381610780565b81146107ae57600080fd5b50565b6000815190506107c08161079a565b92915050565b600080604083850312156107dd576107dc6105e9565b5b60006107eb858286016107b1565b92505060206107fc858286016107b1565b9150509250929050565b600082825260208201905092915050565b7f4445584c6962726172793a204944454e544943414c5f41444452455353455300600082015250565b600061084d601f83610806565b915061085882610817565b602082019050919050565b6000602082019050818103600083015261087c81610840565b9050919050565b7f4445584c6962726172793a205a45524f5f414444524553530000000000000000600082015250565b60006108b9601883610806565b91506108c482610883565b602082019050919050565b600060208201905081810360008301526108e8816108ac565b9050919050565b60007fff0000000000000000000000000000000000000000000000000000000000000082169050919050565b6000819050919050565b610936610931826108ef565b61091b565b82525050565b60008160601b9050919050565b60006109548261093c565b9050919050565b600061096682610949565b9050919050565b61097e610979826105ad565b61095b565b82525050565b6000819050919050565b6000819050919050565b6109a96109a482610984565b61098e565b82525050565b60006109bb8287610925565b6001820191506109cb828661096d565b6014820191506109db8285610998565b6020820191506109eb8284610998565b6020820191508190509594505050505056fe608060405234801561001057600080fd5b50336000806101000a81548173ffffffffffffffffffffffffffffffffffffffff021916908373ffffffffffffffffffffffffffffffffffffffff16021790555061048c806100606000396000f3fe608060405234801561001057600080fd5b50600436106100575760003560e01c80630902f1ac1461005c5780630fc63d101461007b578063485cc955146100995780635f64b55b146100b5578063963671be146100d3575b600080fd5b6100646100f1565b6040516100729291906102e3565b60405180910390f35b610083610136565b604051610090919061034d565b60405180910390f35b6100b360048036038101906100ae9190610399565b61015c565b005b6100bd610270565b6040516100ca919061034d565b60405180910390f35b6100db610296565b6040516100e8919061034d565b60405180910390f35b600080600360009054906101000a90046dffffffffffffffffffffffffffff1691506003600e9054906101000a90046dffffffffffffffffffffffffffff1690509091565b600160009054906101000a900473ffffffffffffffffffffffffffffffffffffffff1681565b60008054906101000a900473ffffffffffffffffffffffffffffffffffffffff1673ffffffffffffffffffffffffffffffffffffffff163373ffffffffffffffffffffffffffffffffffffffff16146101ea576040517f08c379a00000000000000000000000000000000000000000000000000000000081526004016101e190610436565b60405180910390fd5b81600160006101000a81548173ffffffffffffffffffffffffffffffffffffffff021916908373ffffffffffffffffffffffffffffffffffffffff16021790555080600260006101000a81548173ffffffffffffffffffffffffffffffffffffffff021916908373ffffffffffffffffffffffffffffffffffffffff1602179055505050565b600260009054906101000a900473ffffffffffffffffffffffffffffffffffffffff1681565b60008054906101000a900473ffffffffffffffffffffffffffffffffffffffff1681565b60006dffffffffffffffffffffffffffff82169050919050565b6102dd816102ba565b82525050565b60006040820190506102f860008301856102d4565b61030560208301846102d4565b9392505050565b600073ffffffffffffffffffffffffffffffffffffffff82169050919050565b60006103378261030c565b9050919050565b6103478161032c565b82525050565b6000602082019050610362600083018461033e565b92915050565b600080fd5b6103768161032c565b811461038157600080fd5b50565b6000813590506103938161036d565b92915050565b600080604083850312156103b0576103af610368565b5b60006103be85828601610384565b92505060206103cf85828601610384565b9150509250929050565b600082825260208201905092915050565b7f4445583a20464f5242494444454e000000000000000000000000000000000000600082015250565b6000610420600e836103d9565b915061042b826103ea565b602082019050919050565b6000602082019050818103600083015261044f81610413565b905091905056fea264697066735822122057e7ab36de6d3e4c6bc3dbff999fb4a7ecb4b725c960d173b9f5e7c53bdc9e3164736f6c63430008110033a2646970667358221220d3896b043001b11681e5359a3bffc0d6ecd8ab56b80175c05bd27b8cf6b33ee064736f6c63430008110033",
  "linkReferences": {},
  "deployedLinkReferences": {}
}