{
  "_format": "hh-sol-artifact-1",
  "contractName": "Router",
  "sourceName": "contracts/periphery/Router.sol",
  "abi": [
    {
      "inputs": [
        {
          "internalType": "address",
          "name": "_factoryAddr",
          "type": "address"
        }
      ],
      "stateMutability": "nonpayable",
      "type": "constructor"
    },
    {
      "inputs": [
        {
          "internalType": "address",
          "name": "tokenA",
          "type": "address"
        },
        {
          "internalType": "address",
          "name": "tokenB",
          "type": "address"
        },
        {
          "internalType": "uint256",
          "name": "amountADesired",
          "type": "uint256"
        },
        {
          "internalType": "uint256",
          "name": "amountBDesired",
          "type": "uint256"
        },
        {
          "internalType": "uint256",
          "name": "amountAMin",
          "type": "uint256"
        },
        {
          "internalType": "uint256",
          "name": "amountBMin",
          "type": "uint256"
        },
        {
          "internalType": "address",
          "name": "to",
          "type": "address"
        },
        {
          "internalType": "uint256",
          "name": "deadline",
          "type": "uint256"
        }
      ],
      "name": "depositLiquidity",
      "outputs": [
        {
          "internalType": "uint256",
          "name": "amountA",
          "type": "uint256"
        },
        {
          "internalType": "uint256",
          "name": "amountB",
          "type": "uint256"
        },
        {
          "internalType": "uint256",
          "name": "liquidity",
          "type": "uint256"
        }
      ],
      "stateMutability": "nonpayable",
      "type": "function"
    },
    {
      "inputs": [],
      "name": "factoryAddr",
      "outputs": [
        {
          "internalType": "address",
          "name": "",
          "type": "address"
        }
      ],
      "stateMutability": "view",
      "type": "function"
    },
    {
      "inputs": [
        {
          "internalType": "address",
          "name": "tokenA",
          "type": "address"
        },
        {
          "internalType": "address",
          "name": "tokenB",
          "type": "address"
        },
        {
          "internalType": "uint256",
          "name": "liquidity",
          "type": "uint256"
        },
        {
          "internalType": "uint256",
          "name": "amountAMin",
          "type": "uint256"
        },
        {
          "internalType": "uint256",
          "name": "amountBMin",
          "type": "uint256"
        },
        {
          "internalType": "address",
          "name": "to",
          "type": "address"
        },
        {
          "internalType": "uint256",
          "name": "deadline",
          "type": "uint256"
        }
      ],
      "name": "withdrawLiquidity",
      "outputs": [
        {
          "internalType": "uint256",
          "name": "amountA",
          "type": "uint256"
        },
        {
          "internalType": "uint256",
          "name": "amountB",
          "type": "uint256"
        }
      ],
      "stateMutability": "nonpayable",
      "type": "function"
    }
  ],
  "bytecode": "0x60a06040523480156200001157600080fd5b50604051620032c0380380620032c08339818101604052810190620000379190620000dc565b8073ffffffffffffffffffffffffffffffffffffffff1660808173ffffffffffffffffffffffffffffffffffffffff1681525050506200010e565b600080fd5b600073ffffffffffffffffffffffffffffffffffffffff82169050919050565b6000620000a48262000077565b9050919050565b620000b68162000097565b8114620000c257600080fd5b50565b600081519050620000d681620000ab565b92915050565b600060208284031215620000f557620000f462000072565b5b60006200010584828501620000c5565b91505092915050565b60805161317a620001466000396000818161011d015281816101a5015281816102900152818161034701526103ed015261317a6000f3fe608060405234801561001057600080fd5b50600436106100415760003560e01c806381fc326514610046578063963671be14610077578063bf9c997114610095575b600080fd5b610060600480360381019061005b9190610acf565b6100c7565b60405161006e929190610b80565b60405180910390f35b61007f61011b565b60405161008c9190610bb8565b60405180910390f35b6100af60048036038101906100aa9190610bd3565b61013f565b6040516100be93929190610c89565b60405180910390f35b600080824281101561010e576040517f08c379a000000000000000000000000000000000000000000000000000000000815260040161010590610d1d565b60405180910390fd5b5097509795505050505050565b7f000000000000000000000000000000000000000000000000000000000000000081565b60008060008342811015610188576040517f08c379a000000000000000000000000000000000000000000000000000000000815260040161017f90610d1d565b60405180910390fd5b6101968c8c8c8c8c8c610273565b809450819550505060006101cb7f00000000000000000000000000000000000000000000000000000000000000008e8e610521565b90506101d98d3383886105d1565b6101e58c3383876105d1565b8073ffffffffffffffffffffffffffffffffffffffff16636a627842886040518263ffffffff1660e01b815260040161021e9190610bb8565b6020604051808303816000875af115801561023d573d6000803e3d6000fd5b505050506040513d601f19601f820116820180604052508101906102619190610d52565b92505050985098509895505050505050565b600080600073ffffffffffffffffffffffffffffffffffffffff167f000000000000000000000000000000000000000000000000000000000000000073ffffffffffffffffffffffffffffffffffffffff1663b7faf78d8a8a6040518363ffffffff1660e01b81526004016102e9929190610d7f565b602060405180830381865afa158015610306573d6000803e3d6000fd5b505050506040513d601f19601f8201168201806040525081019061032a9190610dbd565b73ffffffffffffffffffffffffffffffffffffffff16036103e5577f000000000000000000000000000000000000000000000000000000000000000073ffffffffffffffffffffffffffffffffffffffff1663c729dfcf89896040518363ffffffff1660e01b81526004016103a0929190610d7f565b6020604051808303816000875af11580156103bf573d6000803e3d6000fd5b505050506040513d601f19601f820116820180604052508101906103e39190610dbd565b505b6000806104137f00000000000000000000000000000000000000000000000000000000000000008b8b610747565b915091506000821480156104275750600081145b1561043b5787878094508195505050610514565b600061044889848461084a565b90508781116104a35785811015610494576040517f08c379a000000000000000000000000000000000000000000000000000000000815260040161048b90610e5c565b60405180910390fd5b88818095508196505050610512565b60006104b089848661084a565b9050898111156104c3576104c2610e7c565b5b87811015610506576040517f08c379a00000000000000000000000000000000000000000000000000000000081526004016104fd90610f1d565b60405180910390fd5b80898096508197505050505b505b5050965096945050505050565b600080600061053085856108fd565b9150915060008282604051602001610549929190610d7f565b60405160208183030381529060405280519060200120905060006040518060200161057390610a29565b6020820181038252601f19601f82011660405250905060ff60f81b888383805190602001206040516020016105ab9493929190610ffd565b6040516020818303038152906040528051906020012060001c9450505050509392505050565b6000604051806060016040528060258152602001613120602591398051906020012090506000808673ffffffffffffffffffffffffffffffffffffffff16838787876040516024016106259392919061104b565b604051602081830303815290604052907bffffffffffffffffffffffffffffffffffffffffffffffffffffffff19166020820180517bffffffffffffffffffffffffffffffffffffffffffffffffffffffff838183161783525050505060405161068f91906110f3565b6000604051808303816000865af19150503d80600081146106cc576040519150601f19603f3d011682016040523d82523d6000602084013e6106d1565b606091505b50915091508180156106ff57506000815114806106fe5750808060200190518101906106fd9190611142565b5b5b61073e576040517f08c379a0000000000000000000000000000000000000000000000000000000008152600401610735906111e1565b60405180910390fd5b50505050505050565b600080600061075685856108fd565b509050600080610767888888610521565b73ffffffffffffffffffffffffffffffffffffffff16630902f1ac6040518163ffffffff1660e01b8152600401606060405180830381865afa1580156107b1573d6000803e3d6000fd5b505050506040513d601f19601f820116820180604052508101906107d59190611283565b506dffffffffffffffffffffffffffff1691506dffffffffffffffffffffffffffff1691508273ffffffffffffffffffffffffffffffffffffffff168773ffffffffffffffffffffffffffffffffffffffff1614610834578082610837565b81815b8095508196505050505050935093915050565b600080841161088e576040517f08c379a000000000000000000000000000000000000000000000000000000000815260040161088590611322565b60405180910390fd5b60008311801561089e5750600082115b6108dd576040517f08c379a00000000000000000000000000000000000000000000000000000000081526004016108d4906113b4565b60405180910390fd5b8282856108ea9190611403565b6108f49190611474565b90509392505050565b6000808273ffffffffffffffffffffffffffffffffffffffff168473ffffffffffffffffffffffffffffffffffffffff160361096e576040517f08c379a0000000000000000000000000000000000000000000000000000000008152600401610965906114f1565b60405180910390fd5b8273ffffffffffffffffffffffffffffffffffffffff168473ffffffffffffffffffffffffffffffffffffffff16106109a85782846109ab565b83835b8092508193505050600073ffffffffffffffffffffffffffffffffffffffff168273ffffffffffffffffffffffffffffffffffffffff1603610a22576040517f08c379a0000000000000000000000000000000000000000000000000000000008152600401610a199061155d565b60405180910390fd5b9250929050565b611ba28061157e83390190565b600080fd5b600073ffffffffffffffffffffffffffffffffffffffff82169050919050565b6000610a6682610a3b565b9050919050565b610a7681610a5b565b8114610a8157600080fd5b50565b600081359050610a9381610a6d565b92915050565b6000819050919050565b610aac81610a99565b8114610ab757600080fd5b50565b600081359050610ac981610aa3565b92915050565b600080600080600080600060e0888a031215610aee57610aed610a36565b5b6000610afc8a828b01610a84565b9750506020610b0d8a828b01610a84565b9650506040610b1e8a828b01610aba565b9550506060610b2f8a828b01610aba565b9450506080610b408a828b01610aba565b93505060a0610b518a828b01610a84565b92505060c0610b628a828b01610aba565b91505092959891949750929550565b610b7a81610a99565b82525050565b6000604082019050610b956000830185610b71565b610ba26020830184610b71565b9392505050565b610bb281610a5b565b82525050565b6000602082019050610bcd6000830184610ba9565b92915050565b600080600080600080600080610100898b031215610bf457610bf3610a36565b5b6000610c028b828c01610a84565b9850506020610c138b828c01610a84565b9750506040610c248b828c01610aba565b9650506060610c358b828c01610aba565b9550506080610c468b828c01610aba565b94505060a0610c578b828c01610aba565b93505060c0610c688b828c01610a84565b92505060e0610c798b828c01610aba565b9150509295985092959890939650565b6000606082019050610c9e6000830186610b71565b610cab6020830185610b71565b610cb86040830184610b71565b949350505050565b600082825260208201905092915050565b7f526f757465723a20455850495245440000000000000000000000000000000000600082015250565b6000610d07600f83610cc0565b9150610d1282610cd1565b602082019050919050565b60006020820190508181036000830152610d3681610cfa565b9050919050565b600081519050610d4c81610aa3565b92915050565b600060208284031215610d6857610d67610a36565b5b6000610d7684828501610d3d565b91505092915050565b6000604082019050610d946000830185610ba9565b610da16020830184610ba9565b9392505050565b600081519050610db781610a6d565b92915050565b600060208284031215610dd357610dd2610a36565b5b6000610de184828501610da8565b91505092915050565b7f4445584c6962726172793a20494e53554646494349454e545f425f414d4f554e60008201527f5400000000000000000000000000000000000000000000000000000000000000602082015250565b6000610e46602183610cc0565b9150610e5182610dea565b604082019050919050565b60006020820190508181036000830152610e7581610e39565b9050919050565b7f4e487b7100000000000000000000000000000000000000000000000000000000600052600160045260246000fd5b7f4445584c6962726172793a20494e53554646494349454e545f415f414d4f554e60008201527f5400000000000000000000000000000000000000000000000000000000000000602082015250565b6000610f07602183610cc0565b9150610f1282610eab565b604082019050919050565b60006020820190508181036000830152610f3681610efa565b9050919050565b60007fff0000000000000000000000000000000000000000000000000000000000000082169050919050565b6000819050919050565b610f84610f7f82610f3d565b610f69565b82525050565b60008160601b9050919050565b6000610fa282610f8a565b9050919050565b6000610fb482610f97565b9050919050565b610fcc610fc782610a5b565b610fa9565b82525050565b6000819050919050565b6000819050919050565b610ff7610ff282610fd2565b610fdc565b82525050565b60006110098287610f73565b6001820191506110198286610fbb565b6014820191506110298285610fe6565b6020820191506110398284610fe6565b60208201915081905095945050505050565b60006060820190506110606000830186610ba9565b61106d6020830185610ba9565b61107a6040830184610b71565b949350505050565b600081519050919050565b600081905092915050565b60005b838110156110b657808201518184015260208101905061109b565b60008484015250505050565b60006110cd82611082565b6110d7818561108d565b93506110e7818560208601611098565b80840191505092915050565b60006110ff82846110c2565b915081905092915050565b60008115159050919050565b61111f8161110a565b811461112a57600080fd5b50565b60008151905061113c81611116565b92915050565b60006020828403121561115857611157610a36565b5b60006111668482850161112d565b91505092915050565b7f5472616e7366657248656c7065723a205452414e534645525f46524f4d5f464160008201527f494c454400000000000000000000000000000000000000000000000000000000602082015250565b60006111cb602483610cc0565b91506111d68261116f565b604082019050919050565b600060208201905081810360008301526111fa816111be565b9050919050565b60006dffffffffffffffffffffffffffff82169050919050565b61122481611201565b811461122f57600080fd5b50565b6000815190506112418161121b565b92915050565b600063ffffffff82169050919050565b61126081611247565b811461126b57600080fd5b50565b60008151905061127d81611257565b92915050565b60008060006060848603121561129c5761129b610a36565b5b60006112aa86828701611232565b93505060206112bb86828701611232565b92505060406112cc8682870161126e565b9150509250925092565b7f4445584c6962726172793a20494e53554646494349454e545f414d4f554e5400600082015250565b600061130c601f83610cc0565b9150611317826112d6565b602082019050919050565b6000602082019050818103600083015261133b816112ff565b9050919050565b7f4445584c6962726172793a20494e53554646494349454e545f4c49515549444960008201527f5459000000000000000000000000000000000000000000000000000000000000602082015250565b600061139e602283610cc0565b91506113a982611342565b604082019050919050565b600060208201905081810360008301526113cd81611391565b9050919050565b7f4e487b7100000000000000000000000000000000000000000000000000000000600052601160045260246000fd5b600061140e82610a99565b915061141983610a99565b925082820261142781610a99565b9150828204841483151761143e5761143d6113d4565b5b5092915050565b7f4e487b7100000000000000000000000000000000000000000000000000000000600052601260045260246000fd5b600061147f82610a99565b915061148a83610a99565b92508261149a57611499611445565b5b828204905092915050565b7f4445584c6962726172793a204944454e544943414c5f41444452455353455300600082015250565b60006114db601f83610cc0565b91506114e6826114a5565b602082019050919050565b6000602082019050818103600083015261150a816114ce565b9050919050565b7f4445584c6962726172793a205a45524f5f414444524553530000000000000000600082015250565b6000611547601883610cc0565b915061155282611511565b602082019050919050565b600060208201905081810360008301526115768161153a565b905091905056fe6080604052600160085534801561001557600080fd5b5033600360006101000a81548173ffffffffffffffffffffffffffffffffffffffff021916908373ffffffffffffffffffffffffffffffffffffffff160217905550611b3c806100666000396000f3fe608060405234801561001057600080fd5b506004361061010b5760003560e01c80635f64b55b116100a257806395d89b411161007157806395d89b41146102c0578063963671be146102de578063a9059cbb146102fc578063ba9a7a561461032c578063dd62ed3e1461034a5761010b565b80635f64b55b146102245780636a6278421461024257806370a08231146102725780637464fc3d146102a25761010b565b806318160ddd116100de57806318160ddd1461019c57806323b872dd146101ba578063313ce567146101ea578063485cc955146102085761010b565b806306fdde03146101105780630902f1ac1461012e578063095ea7b31461014e5780630fc63d101461017e575b600080fd5b61011861037a565b604051610125919061138b565b60405180910390f35b610136610396565b604051610145939291906113f5565b60405180910390f35b610168600480360381019061016391906114c5565b6103f3565b6040516101759190611520565b60405180910390f35b61018661040a565b604051610193919061154a565b60405180910390f35b6101a4610430565b6040516101b19190611574565b60405180910390f35b6101d460048036038101906101cf919061158f565b610436565b6040516101e19190611520565b60405180910390f35b6101f26105fa565b6040516101ff91906115fe565b60405180910390f35b610222600480360381019061021d9190611619565b6105ff565b005b61022c610715565b604051610239919061154a565b60405180910390f35b61025c60048036038101906102579190611659565b61073b565b6040516102699190611574565b60405180910390f35b61028c60048036038101906102879190611659565b610aef565b6040516102999190611574565b60405180910390f35b6102aa610b07565b6040516102b79190611574565b60405180910390f35b6102c8610b0d565b6040516102d5919061138b565b60405180910390f35b6102e6610b46565b6040516102f3919061154a565b60405180910390f35b610316600480360381019061031191906114c5565b610b6c565b6040516103239190611520565b60405180910390f35b610334610b83565b6040516103419190611574565b60405180910390f35b610364600480360381019061035f9190611619565b610b89565b6040516103719190611574565b60405180910390f35b604051806060016040528060278152602001611ae06027913981565b6000806000600660009054906101000a90046dffffffffffffffffffffffffffff1692506006600e9054906101000a90046dffffffffffffffffffffffffffff1691506006601c9054906101000a900463ffffffff169050909192565b6000610400338484610bae565b6001905092915050565b600460009054906101000a900473ffffffffffffffffffffffffffffffffffffffff1681565b60005481565b60007fffffffffffffffffffffffffffffffffffffffffffffffffffffffffffffffff600260008673ffffffffffffffffffffffffffffffffffffffff1673ffffffffffffffffffffffffffffffffffffffff16815260200190815260200160002060003373ffffffffffffffffffffffffffffffffffffffff1673ffffffffffffffffffffffffffffffffffffffff16815260200190815260200160002054146105e45781600260008673ffffffffffffffffffffffffffffffffffffffff1673ffffffffffffffffffffffffffffffffffffffff16815260200190815260200160002060003373ffffffffffffffffffffffffffffffffffffffff1673ffffffffffffffffffffffffffffffffffffffff1681526020019081526020016000205461056391906116b5565b600260008673ffffffffffffffffffffffffffffffffffffffff1673ffffffffffffffffffffffffffffffffffffffff16815260200190815260200160002060003373ffffffffffffffffffffffffffffffffffffffff1673ffffffffffffffffffffffffffffffffffffffff168152602001908152602001600020819055505b6105ef848484610c99565b600190509392505050565b601281565b600360009054906101000a900473ffffffffffffffffffffffffffffffffffffffff1673ffffffffffffffffffffffffffffffffffffffff163373ffffffffffffffffffffffffffffffffffffffff161461068f576040517f08c379a000000000000000000000000000000000000000000000000000000000815260040161068690611735565b60405180910390fd5b81600460006101000a81548173ffffffffffffffffffffffffffffffffffffffff021916908373ffffffffffffffffffffffffffffffffffffffff16021790555080600560006101000a81548173ffffffffffffffffffffffffffffffffffffffff021916908373ffffffffffffffffffffffffffffffffffffffff1602179055505050565b600560009054906101000a900473ffffffffffffffffffffffffffffffffffffffff1681565b6000600160085414610782576040517f08c379a0000000000000000000000000000000000000000000000000000000008152600401610779906117a1565b60405180910390fd5b6000600881905550600080610795610396565b50915091506000600460009054906101000a900473ffffffffffffffffffffffffffffffffffffffff1673ffffffffffffffffffffffffffffffffffffffff166370a08231306040518263ffffffff1660e01b81526004016107f7919061154a565b602060405180830381865afa158015610814573d6000803e3d6000fd5b505050506040513d601f19601f8201168201806040525081019061083891906117d6565b90506000600560009054906101000a900473ffffffffffffffffffffffffffffffffffffffff1673ffffffffffffffffffffffffffffffffffffffff166370a08231306040518263ffffffff1660e01b8152600401610897919061154a565b602060405180830381865afa1580156108b4573d6000803e3d6000fd5b505050506040513d601f19601f820116820180604052508101906108d891906117d6565b90506000846dffffffffffffffffffffffffffff16836108f891906116b5565b90506000846dffffffffffffffffffffffffffff168361091891906116b5565b905060006109268787610e1f565b90506000805490506000810361096b576103e861094d84866109489190611803565b610fcb565b61095791906116b5565b985061096660006103e8611045565b6109fc565b6109f9600660009054906101000a90046dffffffffffffffffffffffffffff166dffffffffffffffffffffffffffff1682866109a79190611803565b6109b19190611874565b6006600e9054906101000a90046dffffffffffffffffffffffffffff166dffffffffffffffffffffffffffff1683866109ea9190611803565b6109f49190611874565b611151565b98505b60008911610a3f576040517f08c379a0000000000000000000000000000000000000000000000000000000008152600401610a3690611917565b60405180910390fd5b610a498a8a611045565b610a53868661116a565b8115610a8a57610a83886dffffffffffffffffffffffffffff16886dffffffffffffffffffffffffffff1661127e565b6007819055505b3373ffffffffffffffffffffffffffffffffffffffff167f4c209b5fc8ad50758f13e2e1088ba56a560dff690a1c6fef26394f4c03821c4f8585604051610ad2929190611937565b60405180910390a250505050505050506001600881905550919050565b60016020528060005260406000206000915090505481565b60075481565b6040518060400160405280600481526020017f4d5644450000000000000000000000000000000000000000000000000000000081525081565b600360009054906101000a900473ffffffffffffffffffffffffffffffffffffffff1681565b6000610b79338484610c99565b6001905092915050565b6103e881565b6002602052816000526040600020602052806000526040600020600091509150505481565b80600260008573ffffffffffffffffffffffffffffffffffffffff1673ffffffffffffffffffffffffffffffffffffffff16815260200190815260200160002060008473ffffffffffffffffffffffffffffffffffffffff1673ffffffffffffffffffffffffffffffffffffffff168152602001908152602001600020819055508173ffffffffffffffffffffffffffffffffffffffff168373ffffffffffffffffffffffffffffffffffffffff167f8c5be1e5ebec7d5bd14f71427d1e84f3dd0314c0f7b2291e5b200ac8c7c3b92583604051610c8c9190611574565b60405180910390a3505050565b80600160008573ffffffffffffffffffffffffffffffffffffffff1673ffffffffffffffffffffffffffffffffffffffff16815260200190815260200160002054610ce491906116b5565b600160008573ffffffffffffffffffffffffffffffffffffffff1673ffffffffffffffffffffffffffffffffffffffff1681526020019081526020016000208190555080600160008473ffffffffffffffffffffffffffffffffffffffff1673ffffffffffffffffffffffffffffffffffffffff16815260200190815260200160002054610d729190611960565b600160008473ffffffffffffffffffffffffffffffffffffffff1673ffffffffffffffffffffffffffffffffffffffff168152602001908152602001600020819055508173ffffffffffffffffffffffffffffffffffffffff168373ffffffffffffffffffffffffffffffffffffffff167fddf252ad1be2c89b69c2b068fc378daa952ba7f163c4a11628f55a4df523b3ef83604051610e129190611574565b60405180910390a3505050565b600080600360009054906101000a900473ffffffffffffffffffffffffffffffffffffffff1673ffffffffffffffffffffffffffffffffffffffff1663017e7e586040518163ffffffff1660e01b8152600401602060405180830381865afa158015610e8f573d6000803e3d6000fd5b505050506040513d601f19601f82011682018060405250810190610eb391906119a9565b9050600073ffffffffffffffffffffffffffffffffffffffff168173ffffffffffffffffffffffffffffffffffffffff1614159150600060075490508215610fb15760008114610fac576000610f31610f2c876dffffffffffffffffffffffffffff16876dffffffffffffffffffffffffffff1661127e565b610fcb565b90506000610f3e83610fcb565b905080821115610fa95760008183610f5691906116b5565b600054610f639190611803565b9050600082600585610f759190611803565b610f7f9190611960565b905060008183610f8f9190611874565b90506000811115610fa557610fa48782611045565b5b5050505b50505b610fc3565b60008114610fc25760006007819055505b5b505092915050565b600060038211156110325781905060006001600284610fea9190611874565b610ff49190611960565b90505b8181101561102c5780915060028182856110119190611874565b61101b9190611960565b6110259190611874565b9050610ff7565b50611040565b6000821461103f57600190505b5b919050565b806000546110539190611960565b60008190555080600160008473ffffffffffffffffffffffffffffffffffffffff1673ffffffffffffffffffffffffffffffffffffffff168152602001908152602001600020546110a49190611960565b600160008473ffffffffffffffffffffffffffffffffffffffff1673ffffffffffffffffffffffffffffffffffffffff168152602001908152602001600020819055508173ffffffffffffffffffffffffffffffffffffffff16600073ffffffffffffffffffffffffffffffffffffffff167fddf252ad1be2c89b69c2b068fc378daa952ba7f163c4a11628f55a4df523b3ef836040516111459190611574565b60405180910390a35050565b60008183106111605781611162565b825b905092915050565b6dffffffffffffffffffffffffffff8016821115801561119a57506dffffffffffffffffffffffffffff80168111155b6111d9576040517f08c379a00000000000000000000000000000000000000000000000000000000081526004016111d090611a22565b60405180910390fd5b81600660006101000a8154816dffffffffffffffffffffffffffff02191690836dffffffffffffffffffffffffffff160217905550806006600e6101000a8154816dffffffffffffffffffffffffffff02191690836dffffffffffffffffffffffffffff1602179055506000640100000000426112569190611a42565b9050806006601c6101000a81548163ffffffff021916908363ffffffff160217905550505050565b600081830290507fffffffffffffffffffffffffffffffffffffffffffffffffffffffffffffffff81111580156112b6575060008110155b6112f5576040517f08c379a00000000000000000000000000000000000000000000000000000000081526004016112ec90611abf565b60405180910390fd5b92915050565b600081519050919050565b600082825260208201905092915050565b60005b8381101561133557808201518184015260208101905061131a565b60008484015250505050565b6000601f19601f8301169050919050565b600061135d826112fb565b6113678185611306565b9350611377818560208601611317565b61138081611341565b840191505092915050565b600060208201905081810360008301526113a58184611352565b905092915050565b60006dffffffffffffffffffffffffffff82169050919050565b6113d0816113ad565b82525050565b600063ffffffff82169050919050565b6113ef816113d6565b82525050565b600060608201905061140a60008301866113c7565b61141760208301856113c7565b61142460408301846113e6565b949350505050565b600080fd5b600073ffffffffffffffffffffffffffffffffffffffff82169050919050565b600061145c82611431565b9050919050565b61146c81611451565b811461147757600080fd5b50565b60008135905061148981611463565b92915050565b6000819050919050565b6114a28161148f565b81146114ad57600080fd5b50565b6000813590506114bf81611499565b92915050565b600080604083850312156114dc576114db61142c565b5b60006114ea8582860161147a565b92505060206114fb858286016114b0565b9150509250929050565b60008115159050919050565b61151a81611505565b82525050565b60006020820190506115356000830184611511565b92915050565b61154481611451565b82525050565b600060208201905061155f600083018461153b565b92915050565b61156e8161148f565b82525050565b60006020820190506115896000830184611565565b92915050565b6000806000606084860312156115a8576115a761142c565b5b60006115b68682870161147a565b93505060206115c78682870161147a565b92505060406115d8868287016114b0565b9150509250925092565b600060ff82169050919050565b6115f8816115e2565b82525050565b600060208201905061161360008301846115ef565b92915050565b600080604083850312156116305761162f61142c565b5b600061163e8582860161147a565b925050602061164f8582860161147a565b9150509250929050565b60006020828403121561166f5761166e61142c565b5b600061167d8482850161147a565b91505092915050565b7f4e487b7100000000000000000000000000000000000000000000000000000000600052601160045260246000fd5b60006116c08261148f565b91506116cb8361148f565b92508282039050818111156116e3576116e2611686565b5b92915050565b7f4445583a20464f5242494444454e000000000000000000000000000000000000600082015250565b600061171f600e83611306565b915061172a826116e9565b602082019050919050565b6000602082019050818103600083015261174e81611712565b9050919050565b7f4445583a204c4f434b4544000000000000000000000000000000000000000000600082015250565b600061178b600b83611306565b915061179682611755565b602082019050919050565b600060208201905081810360008301526117ba8161177e565b9050919050565b6000815190506117d081611499565b92915050565b6000602082840312156117ec576117eb61142c565b5b60006117fa848285016117c1565b91505092915050565b600061180e8261148f565b91506118198361148f565b92508282026118278161148f565b9150828204841483151761183e5761183d611686565b5b5092915050565b7f4e487b7100000000000000000000000000000000000000000000000000000000600052601260045260246000fd5b600061187f8261148f565b915061188a8361148f565b92508261189a57611899611845565b5b828204905092915050565b7f4445583a20494e53554646494349454e545f4c49515549444954595f4d494e5460008201527f4544000000000000000000000000000000000000000000000000000000000000602082015250565b6000611901602283611306565b915061190c826118a5565b604082019050919050565b60006020820190508181036000830152611930816118f4565b9050919050565b600060408201905061194c6000830185611565565b6119596020830184611565565b9392505050565b600061196b8261148f565b91506119768361148f565b925082820190508082111561198e5761198d611686565b5b92915050565b6000815190506119a381611463565b92915050565b6000602082840312156119bf576119be61142c565b5b60006119cd84828501611994565b91505092915050565b7f4445583a204f564552464c4f5700000000000000000000000000000000000000600082015250565b6000611a0c600d83611306565b9150611a17826119d6565b602082019050919050565b60006020820190508181036000830152611a3b816119ff565b9050919050565b6000611a4d8261148f565b9150611a588361148f565b925082611a6857611a67611845565b5b828206905092915050565b7f6f766572666c6f772f756e646572666c6f770000000000000000000000000000600082015250565b6000611aa9601283611306565b9150611ab482611a73565b602082019050919050565b60006020820190508181036000830152611ad881611a9c565b905091905056fe4d696e696d616c6c7920566961626c6520446563656e7472616c697a65642045786368616e6765a264697066735822122020c26e5111520f9546bcc9700ad55238c32682a9b75ffd90a1fbb32136350dd964736f6c634300081100337472616e7366657246726f6d28616464726573732c616464726573732c75696e7432353629a26469706673582212202f9a9ac152deafdb942d3efb38cc317f9160d07c81a1dacc2d4ebaa91ab28fed64736f6c63430008110033",
  "linkReferences": {},
  "deployedLinkReferences": {}
}