{
  "_format": "hh-sol-artifact-1",
  "contractName": "Router",
  "sourceName": "contracts/periphery/Router.sol",
  "abi": [
    {
      "inputs": [
        {
          "internalType": "address",
          "name": "_factoryAddr",
          "type": "address"
        }
      ],
      "stateMutability": "nonpayable",
      "type": "constructor"
    },
    {
      "inputs": [
        {
          "internalType": "address",
          "name": "tokenA",
          "type": "address"
        },
        {
          "internalType": "address",
          "name": "tokenB",
          "type": "address"
        },
        {
          "internalType": "uint256",
          "name": "amountADesired",
          "type": "uint256"
        },
        {
          "internalType": "uint256",
          "name": "amountBDesired",
          "type": "uint256"
        },
        {
          "internalType": "uint256",
          "name": "amountAMin",
          "type": "uint256"
        },
        {
          "internalType": "uint256",
          "name": "amountBMin",
          "type": "uint256"
        },
        {
          "internalType": "address",
          "name": "to",
          "type": "address"
        }
      ],
      "name": "depositLiquidity",
      "outputs": [
        {
          "internalType": "uint256",
          "name": "amountA",
          "type": "uint256"
        },
        {
          "internalType": "uint256",
          "name": "amountB",
          "type": "uint256"
        },
        {
          "internalType": "uint256",
          "name": "liquidity",
          "type": "uint256"
        }
      ],
      "stateMutability": "nonpayable",
      "type": "function"
    },
    {
      "inputs": [],
      "name": "factoryAddr",
      "outputs": [
        {
          "internalType": "address",
          "name": "",
          "type": "address"
        }
      ],
      "stateMutability": "view",
      "type": "function"
    }
  ],
  "bytecode": "0x60a06040523480156200001157600080fd5b5060405162002c8b38038062002c8b8339818101604052810190620000379190620000dc565b8073ffffffffffffffffffffffffffffffffffffffff1660808173ffffffffffffffffffffffffffffffffffffffff1681525050506200010e565b600080fd5b600073ffffffffffffffffffffffffffffffffffffffff82169050919050565b6000620000a48262000077565b9050919050565b620000b68162000097565b8114620000c257600080fd5b50565b600081519050620000d681620000ab565b92915050565b600060208284031215620000f557620000f462000072565b5b60006200010584828501620000c5565b91505092915050565b608051612b476200014460003960008181608d0152818160d1015281816101ba0152818161027101526103170152612b476000f3fe608060405234801561001057600080fd5b50600436106100365760003560e01c8063963671be1461003b578063d5acc60714610059575b600080fd5b61004361008b565b60405161005091906109a1565b60405180910390f35b610073600480360381019061006e9190610a23565b6100af565b60405161008293929190610ad4565b60405180910390f35b7f000000000000000000000000000000000000000000000000000000000000000081565b60008060006100c28a8a8a8a8a8a61019d565b809350819450505060006100f77f00000000000000000000000000000000000000000000000000000000000000008c8c61044b565b90506101058b3383876104fb565b6101118a3383866104fb565b8073ffffffffffffffffffffffffffffffffffffffff16636a627842866040518263ffffffff1660e01b815260040161014a91906109a1565b6020604051808303816000875af1158015610169573d6000803e3d6000fd5b505050506040513d601f19601f8201168201806040525081019061018d9190610b20565b9150509750975097945050505050565b600080600073ffffffffffffffffffffffffffffffffffffffff167f000000000000000000000000000000000000000000000000000000000000000073ffffffffffffffffffffffffffffffffffffffff1663b7faf78d8a8a6040518363ffffffff1660e01b8152600401610213929190610b4d565b602060405180830381865afa158015610230573d6000803e3d6000fd5b505050506040513d601f19601f820116820180604052508101906102549190610b8b565b73ffffffffffffffffffffffffffffffffffffffff160361030f577f000000000000000000000000000000000000000000000000000000000000000073ffffffffffffffffffffffffffffffffffffffff1663c729dfcf89896040518363ffffffff1660e01b81526004016102ca929190610b4d565b6020604051808303816000875af11580156102e9573d6000803e3d6000fd5b505050506040513d601f19601f8201168201806040525081019061030d9190610b8b565b505b60008061033d7f00000000000000000000000000000000000000000000000000000000000000008b8b610671565b915091506000821480156103515750600081145b15610365578787809450819550505061043e565b6000610372898484610774565b90508781116103cd57858110156103be576040517f08c379a00000000000000000000000000000000000000000000000000000000081526004016103b590610c3b565b60405180910390fd5b8881809550819650505061043c565b60006103da898486610774565b9050898111156103ed576103ec610c5b565b5b87811015610430576040517f08c379a000000000000000000000000000000000000000000000000000000000815260040161042790610cfc565b60405180910390fd5b80898096508197505050505b505b5050965096945050505050565b600080600061045a8585610827565b9150915060008282604051602001610473929190610b4d565b60405160208183030381529060405280519060200120905060006040518060200161049d90610953565b6020820181038252601f19601f82011660405250905060ff60f81b888383805190602001206040516020016104d59493929190610ddc565b6040516020818303038152906040528051906020012060001c9450505050509392505050565b6000604051806060016040528060258152602001612aed602591398051906020012090506000808673ffffffffffffffffffffffffffffffffffffffff168387878760405160240161054f93929190610e2a565b604051602081830303815290604052907bffffffffffffffffffffffffffffffffffffffffffffffffffffffff19166020820180517bffffffffffffffffffffffffffffffffffffffffffffffffffffffff83818316178352505050506040516105b99190610ed2565b6000604051808303816000865af19150503d80600081146105f6576040519150601f19603f3d011682016040523d82523d6000602084013e6105fb565b606091505b509150915081801561062957506000815114806106285750808060200190518101906106279190610f21565b5b5b610668576040517f08c379a000000000000000000000000000000000000000000000000000000000815260040161065f90610fc0565b60405180910390fd5b50505050505050565b60008060006106808585610827565b50905060008061069188888861044b565b73ffffffffffffffffffffffffffffffffffffffff16630902f1ac6040518163ffffffff1660e01b8152600401606060405180830381865afa1580156106db573d6000803e3d6000fd5b505050506040513d601f19601f820116820180604052508101906106ff9190611062565b506dffffffffffffffffffffffffffff1691506dffffffffffffffffffffffffffff1691508273ffffffffffffffffffffffffffffffffffffffff168773ffffffffffffffffffffffffffffffffffffffff161461075e578082610761565b81815b8095508196505050505050935093915050565b60008084116107b8576040517f08c379a00000000000000000000000000000000000000000000000000000000081526004016107af90611101565b60405180910390fd5b6000831180156107c85750600082115b610807576040517f08c379a00000000000000000000000000000000000000000000000000000000081526004016107fe90611193565b60405180910390fd5b82828561081491906111e2565b61081e9190611253565b90509392505050565b6000808273ffffffffffffffffffffffffffffffffffffffff168473ffffffffffffffffffffffffffffffffffffffff1603610898576040517f08c379a000000000000000000000000000000000000000000000000000000000815260040161088f906112d0565b60405180910390fd5b8273ffffffffffffffffffffffffffffffffffffffff168473ffffffffffffffffffffffffffffffffffffffff16106108d25782846108d5565b83835b8092508193505050600073ffffffffffffffffffffffffffffffffffffffff168273ffffffffffffffffffffffffffffffffffffffff160361094c576040517f08c379a00000000000000000000000000000000000000000000000000000000081526004016109439061133c565b60405180910390fd5b9250929050565b6117908061135d83390190565b600073ffffffffffffffffffffffffffffffffffffffff82169050919050565b600061098b82610960565b9050919050565b61099b81610980565b82525050565b60006020820190506109b66000830184610992565b92915050565b600080fd5b6109ca81610980565b81146109d557600080fd5b50565b6000813590506109e7816109c1565b92915050565b6000819050919050565b610a00816109ed565b8114610a0b57600080fd5b50565b600081359050610a1d816109f7565b92915050565b600080600080600080600060e0888a031215610a4257610a416109bc565b5b6000610a508a828b016109d8565b9750506020610a618a828b016109d8565b9650506040610a728a828b01610a0e565b9550506060610a838a828b01610a0e565b9450506080610a948a828b01610a0e565b93505060a0610aa58a828b01610a0e565b92505060c0610ab68a828b016109d8565b91505092959891949750929550565b610ace816109ed565b82525050565b6000606082019050610ae96000830186610ac5565b610af66020830185610ac5565b610b036040830184610ac5565b949350505050565b600081519050610b1a816109f7565b92915050565b600060208284031215610b3657610b356109bc565b5b6000610b4484828501610b0b565b91505092915050565b6000604082019050610b626000830185610992565b610b6f6020830184610992565b9392505050565b600081519050610b85816109c1565b92915050565b600060208284031215610ba157610ba06109bc565b5b6000610baf84828501610b76565b91505092915050565b600082825260208201905092915050565b7f4445584c6962726172793a20494e53554646494349454e545f425f414d4f554e60008201527f5400000000000000000000000000000000000000000000000000000000000000602082015250565b6000610c25602183610bb8565b9150610c3082610bc9565b604082019050919050565b60006020820190508181036000830152610c5481610c18565b9050919050565b7f4e487b7100000000000000000000000000000000000000000000000000000000600052600160045260246000fd5b7f4445584c6962726172793a20494e53554646494349454e545f415f414d4f554e60008201527f5400000000000000000000000000000000000000000000000000000000000000602082015250565b6000610ce6602183610bb8565b9150610cf182610c8a565b604082019050919050565b60006020820190508181036000830152610d1581610cd9565b9050919050565b60007fff0000000000000000000000000000000000000000000000000000000000000082169050919050565b6000819050919050565b610d63610d5e82610d1c565b610d48565b82525050565b60008160601b9050919050565b6000610d8182610d69565b9050919050565b6000610d9382610d76565b9050919050565b610dab610da682610980565b610d88565b82525050565b6000819050919050565b6000819050919050565b610dd6610dd182610db1565b610dbb565b82525050565b6000610de88287610d52565b600182019150610df88286610d9a565b601482019150610e088285610dc5565b602082019150610e188284610dc5565b60208201915081905095945050505050565b6000606082019050610e3f6000830186610992565b610e4c6020830185610992565b610e596040830184610ac5565b949350505050565b600081519050919050565b600081905092915050565b60005b83811015610e95578082015181840152602081019050610e7a565b60008484015250505050565b6000610eac82610e61565b610eb68185610e6c565b9350610ec6818560208601610e77565b80840191505092915050565b6000610ede8284610ea1565b915081905092915050565b60008115159050919050565b610efe81610ee9565b8114610f0957600080fd5b50565b600081519050610f1b81610ef5565b92915050565b600060208284031215610f3757610f366109bc565b5b6000610f4584828501610f0c565b91505092915050565b7f5472616e7366657248656c7065723a205452414e534645525f46524f4d5f464160008201527f494c454400000000000000000000000000000000000000000000000000000000602082015250565b6000610faa602483610bb8565b9150610fb582610f4e565b604082019050919050565b60006020820190508181036000830152610fd981610f9d565b9050919050565b60006dffffffffffffffffffffffffffff82169050919050565b61100381610fe0565b811461100e57600080fd5b50565b60008151905061102081610ffa565b92915050565b600063ffffffff82169050919050565b61103f81611026565b811461104a57600080fd5b50565b60008151905061105c81611036565b92915050565b60008060006060848603121561107b5761107a6109bc565b5b600061108986828701611011565b935050602061109a86828701611011565b92505060406110ab8682870161104d565b9150509250925092565b7f4445584c6962726172793a20494e53554646494349454e545f414d4f554e5400600082015250565b60006110eb601f83610bb8565b91506110f6826110b5565b602082019050919050565b6000602082019050818103600083015261111a816110de565b9050919050565b7f4445584c6962726172793a20494e53554646494349454e545f4c49515549444960008201527f5459000000000000000000000000000000000000000000000000000000000000602082015250565b600061117d602283610bb8565b915061118882611121565b604082019050919050565b600060208201905081810360008301526111ac81611170565b9050919050565b7f4e487b7100000000000000000000000000000000000000000000000000000000600052601160045260246000fd5b60006111ed826109ed565b91506111f8836109ed565b9250828202611206816109ed565b9150828204841483151761121d5761121c6111b3565b5b5092915050565b7f4e487b7100000000000000000000000000000000000000000000000000000000600052601260045260246000fd5b600061125e826109ed565b9150611269836109ed565b92508261127957611278611224565b5b828204905092915050565b7f4445584c6962726172793a204944454e544943414c5f41444452455353455300600082015250565b60006112ba601f83610bb8565b91506112c582611284565b602082019050919050565b600060208201905081810360008301526112e9816112ad565b9050919050565b7f4445584c6962726172793a205a45524f5f414444524553530000000000000000600082015250565b6000611326601883610bb8565b9150611331826112f0565b602082019050919050565b6000602082019050818103600083015261135581611319565b905091905056fe608060405234801561001057600080fd5b5033600360006101000a81548173ffffffffffffffffffffffffffffffffffffffff021916908373ffffffffffffffffffffffffffffffffffffffff16021790555061172f806100616000396000f3fe608060405234801561001057600080fd5b50600436106101005760003560e01c80635f64b55b11610097578063963671be11610066578063963671be146102b5578063a9059cbb146102d3578063ba9a7a5614610303578063dd62ed3e1461032157610100565b80635f64b55b146102195780636a6278421461023757806370a082311461026757806395d89b411461029757610100565b806318160ddd116100d357806318160ddd1461019157806323b872dd146101af578063313ce567146101df578063485cc955146101fd57610100565b806306fdde03146101055780630902f1ac14610123578063095ea7b3146101435780630fc63d1014610173575b600080fd5b61010d610351565b60405161011a9190611098565b60405180910390f35b61012b61036d565b60405161013a93929190611102565b60405180910390f35b61015d600480360381019061015891906111d2565b6103ca565b60405161016a919061122d565b60405180910390f35b61017b6103e1565b6040516101889190611257565b60405180910390f35b610199610407565b6040516101a69190611281565b60405180910390f35b6101c960048036038101906101c4919061129c565b61040d565b6040516101d6919061122d565b60405180910390f35b6101e76105d1565b6040516101f4919061130b565b60405180910390f35b61021760048036038101906102129190611326565b6105d6565b005b6102216106ec565b60405161022e9190611257565b60405180910390f35b610251600480360381019061024c9190611366565b610712565b60405161025e9190611281565b60405180910390f35b610281600480360381019061027c9190611366565b610a2b565b60405161028e9190611281565b60405180910390f35b61029f610a43565b6040516102ac9190611098565b60405180910390f35b6102bd610a7c565b6040516102ca9190611257565b60405180910390f35b6102ed60048036038101906102e891906111d2565b610aa2565b6040516102fa919061122d565b60405180910390f35b61030b610ab9565b6040516103189190611281565b60405180910390f35b61033b60048036038101906103369190611326565b610abf565b6040516103489190611281565b60405180910390f35b6040518060600160405280602781526020016116d36027913981565b6000806000600660009054906101000a90046dffffffffffffffffffffffffffff1692506006600e9054906101000a90046dffffffffffffffffffffffffffff1691506006601c9054906101000a900463ffffffff169050909192565b60006103d7338484610ae4565b6001905092915050565b600460009054906101000a900473ffffffffffffffffffffffffffffffffffffffff1681565b60005481565b60007fffffffffffffffffffffffffffffffffffffffffffffffffffffffffffffffff600260008673ffffffffffffffffffffffffffffffffffffffff1673ffffffffffffffffffffffffffffffffffffffff16815260200190815260200160002060003373ffffffffffffffffffffffffffffffffffffffff1673ffffffffffffffffffffffffffffffffffffffff16815260200190815260200160002054146105bb5781600260008673ffffffffffffffffffffffffffffffffffffffff1673ffffffffffffffffffffffffffffffffffffffff16815260200190815260200160002060003373ffffffffffffffffffffffffffffffffffffffff1673ffffffffffffffffffffffffffffffffffffffff1681526020019081526020016000205461053a91906113c2565b600260008673ffffffffffffffffffffffffffffffffffffffff1673ffffffffffffffffffffffffffffffffffffffff16815260200190815260200160002060003373ffffffffffffffffffffffffffffffffffffffff1673ffffffffffffffffffffffffffffffffffffffff168152602001908152602001600020819055505b6105c6848484610bcf565b600190509392505050565b601281565b600360009054906101000a900473ffffffffffffffffffffffffffffffffffffffff1673ffffffffffffffffffffffffffffffffffffffff163373ffffffffffffffffffffffffffffffffffffffff1614610666576040517f08c379a000000000000000000000000000000000000000000000000000000000815260040161065d90611442565b60405180910390fd5b81600460006101000a81548173ffffffffffffffffffffffffffffffffffffffff021916908373ffffffffffffffffffffffffffffffffffffffff16021790555080600560006101000a81548173ffffffffffffffffffffffffffffffffffffffff021916908373ffffffffffffffffffffffffffffffffffffffff1602179055505050565b600560009054906101000a900473ffffffffffffffffffffffffffffffffffffffff1681565b600080600061071f61036d565b50915091506000600460009054906101000a900473ffffffffffffffffffffffffffffffffffffffff1673ffffffffffffffffffffffffffffffffffffffff166370a08231306040518263ffffffff1660e01b81526004016107819190611257565b602060405180830381865afa15801561079e573d6000803e3d6000fd5b505050506040513d601f19601f820116820180604052508101906107c29190611477565b90506000600560009054906101000a900473ffffffffffffffffffffffffffffffffffffffff1673ffffffffffffffffffffffffffffffffffffffff166370a08231306040518263ffffffff1660e01b81526004016108219190611257565b602060405180830381865afa15801561083e573d6000803e3d6000fd5b505050506040513d601f19601f820116820180604052508101906108629190611477565b90506000846dffffffffffffffffffffffffffff168361088291906113c2565b90506000846dffffffffffffffffffffffffffff16836108a291906113c2565b9050600080549050600081036108e7576103e86108c983856108c491906114a4565b610d55565b6108d391906113c2565b97506108e260006103e8610dcf565b610978565b610975600660009054906101000a90046dffffffffffffffffffffffffffff166dffffffffffffffffffffffffffff16828561092391906114a4565b61092d9190611515565b6006600e9054906101000a90046dffffffffffffffffffffffffffff166dffffffffffffffffffffffffffff16838561096691906114a4565b6109709190611515565b610edb565b97505b600088116109bb576040517f08c379a00000000000000000000000000000000000000000000000000000000081526004016109b2906115b8565b60405180910390fd5b6109c58989610dcf565b6109cf8585610ef4565b3373ffffffffffffffffffffffffffffffffffffffff167f4c209b5fc8ad50758f13e2e1088ba56a560dff690a1c6fef26394f4c03821c4f8484604051610a179291906115d8565b60405180910390a250505050505050919050565b60016020528060005260406000206000915090505481565b6040518060400160405280600481526020017f4d5644450000000000000000000000000000000000000000000000000000000081525081565b600360009054906101000a900473ffffffffffffffffffffffffffffffffffffffff1681565b6000610aaf338484610bcf565b6001905092915050565b6103e881565b6002602052816000526040600020602052806000526040600020600091509150505481565b80600260008573ffffffffffffffffffffffffffffffffffffffff1673ffffffffffffffffffffffffffffffffffffffff16815260200190815260200160002060008473ffffffffffffffffffffffffffffffffffffffff1673ffffffffffffffffffffffffffffffffffffffff168152602001908152602001600020819055508173ffffffffffffffffffffffffffffffffffffffff168373ffffffffffffffffffffffffffffffffffffffff167f8c5be1e5ebec7d5bd14f71427d1e84f3dd0314c0f7b2291e5b200ac8c7c3b92583604051610bc29190611281565b60405180910390a3505050565b80600160008573ffffffffffffffffffffffffffffffffffffffff1673ffffffffffffffffffffffffffffffffffffffff16815260200190815260200160002054610c1a91906113c2565b600160008573ffffffffffffffffffffffffffffffffffffffff1673ffffffffffffffffffffffffffffffffffffffff1681526020019081526020016000208190555080600160008473ffffffffffffffffffffffffffffffffffffffff1673ffffffffffffffffffffffffffffffffffffffff16815260200190815260200160002054610ca89190611601565b600160008473ffffffffffffffffffffffffffffffffffffffff1673ffffffffffffffffffffffffffffffffffffffff168152602001908152602001600020819055508173ffffffffffffffffffffffffffffffffffffffff168373ffffffffffffffffffffffffffffffffffffffff167fddf252ad1be2c89b69c2b068fc378daa952ba7f163c4a11628f55a4df523b3ef83604051610d489190611281565b60405180910390a3505050565b60006003821115610dbc5781905060006001600284610d749190611515565b610d7e9190611601565b90505b81811015610db6578091506002818285610d9b9190611515565b610da59190611601565b610daf9190611515565b9050610d81565b50610dca565b60008214610dc957600190505b5b919050565b80600054610ddd9190611601565b60008190555080600160008473ffffffffffffffffffffffffffffffffffffffff1673ffffffffffffffffffffffffffffffffffffffff16815260200190815260200160002054610e2e9190611601565b600160008473ffffffffffffffffffffffffffffffffffffffff1673ffffffffffffffffffffffffffffffffffffffff168152602001908152602001600020819055508173ffffffffffffffffffffffffffffffffffffffff16600073ffffffffffffffffffffffffffffffffffffffff167fddf252ad1be2c89b69c2b068fc378daa952ba7f163c4a11628f55a4df523b3ef83604051610ecf9190611281565b60405180910390a35050565b6000818310610eea5781610eec565b825b905092915050565b6dffffffffffffffffffffffffffff80168211158015610f2457506dffffffffffffffffffffffffffff80168111155b610f63576040517f08c379a0000000000000000000000000000000000000000000000000000000008152600401610f5a90611681565b60405180910390fd5b81600660006101000a8154816dffffffffffffffffffffffffffff02191690836dffffffffffffffffffffffffffff160217905550806006600e6101000a8154816dffffffffffffffffffffffffffff02191690836dffffffffffffffffffffffffffff160217905550600064010000000042610fe091906116a1565b9050806006601c6101000a81548163ffffffff021916908363ffffffff160217905550505050565b600081519050919050565b600082825260208201905092915050565b60005b83811015611042578082015181840152602081019050611027565b60008484015250505050565b6000601f19601f8301169050919050565b600061106a82611008565b6110748185611013565b9350611084818560208601611024565b61108d8161104e565b840191505092915050565b600060208201905081810360008301526110b2818461105f565b905092915050565b60006dffffffffffffffffffffffffffff82169050919050565b6110dd816110ba565b82525050565b600063ffffffff82169050919050565b6110fc816110e3565b82525050565b600060608201905061111760008301866110d4565b61112460208301856110d4565b61113160408301846110f3565b949350505050565b600080fd5b600073ffffffffffffffffffffffffffffffffffffffff82169050919050565b60006111698261113e565b9050919050565b6111798161115e565b811461118457600080fd5b50565b60008135905061119681611170565b92915050565b6000819050919050565b6111af8161119c565b81146111ba57600080fd5b50565b6000813590506111cc816111a6565b92915050565b600080604083850312156111e9576111e8611139565b5b60006111f785828601611187565b9250506020611208858286016111bd565b9150509250929050565b60008115159050919050565b61122781611212565b82525050565b6000602082019050611242600083018461121e565b92915050565b6112518161115e565b82525050565b600060208201905061126c6000830184611248565b92915050565b61127b8161119c565b82525050565b60006020820190506112966000830184611272565b92915050565b6000806000606084860312156112b5576112b4611139565b5b60006112c386828701611187565b93505060206112d486828701611187565b92505060406112e5868287016111bd565b9150509250925092565b600060ff82169050919050565b611305816112ef565b82525050565b600060208201905061132060008301846112fc565b92915050565b6000806040838503121561133d5761133c611139565b5b600061134b85828601611187565b925050602061135c85828601611187565b9150509250929050565b60006020828403121561137c5761137b611139565b5b600061138a84828501611187565b91505092915050565b7f4e487b7100000000000000000000000000000000000000000000000000000000600052601160045260246000fd5b60006113cd8261119c565b91506113d88361119c565b92508282039050818111156113f0576113ef611393565b5b92915050565b7f4445583a20464f5242494444454e000000000000000000000000000000000000600082015250565b600061142c600e83611013565b9150611437826113f6565b602082019050919050565b6000602082019050818103600083015261145b8161141f565b9050919050565b600081519050611471816111a6565b92915050565b60006020828403121561148d5761148c611139565b5b600061149b84828501611462565b91505092915050565b60006114af8261119c565b91506114ba8361119c565b92508282026114c88161119c565b915082820484148315176114df576114de611393565b5b5092915050565b7f4e487b7100000000000000000000000000000000000000000000000000000000600052601260045260246000fd5b60006115208261119c565b915061152b8361119c565b92508261153b5761153a6114e6565b5b828204905092915050565b7f4445583a20494e53554646494349454e545f4c49515549444954595f4d494e5460008201527f4544000000000000000000000000000000000000000000000000000000000000602082015250565b60006115a2602283611013565b91506115ad82611546565b604082019050919050565b600060208201905081810360008301526115d181611595565b9050919050565b60006040820190506115ed6000830185611272565b6115fa6020830184611272565b9392505050565b600061160c8261119c565b91506116178361119c565b925082820190508082111561162f5761162e611393565b5b92915050565b7f4445583a204f564552464c4f5700000000000000000000000000000000000000600082015250565b600061166b600d83611013565b915061167682611635565b602082019050919050565b6000602082019050818103600083015261169a8161165e565b9050919050565b60006116ac8261119c565b91506116b78361119c565b9250826116c7576116c66114e6565b5b82820690509291505056fe4d696e696d616c6c7920566961626c6520446563656e7472616c697a65642045786368616e6765a264697066735822122014494992d1e43ed72a778174d4b6ac0990046365eb83a8ef9289be0ae16ac5cf64736f6c634300081100337472616e7366657246726f6d28616464726573732c616464726573732c75696e7432353629a264697066735822122059aca7bfcfd7dedb27a62966e93e11d9d23db5522faaa1b9dbcfdc2b697e529c64736f6c63430008110033",
  "linkReferences": {},
  "deployedLinkReferences": {}
}