{
  "_format": "hh-sol-artifact-1",
  "contractName": "Router",
  "sourceName": "contracts/periphery/Router.sol",
  "abi": [
    {
      "inputs": [
        {
          "internalType": "address",
          "name": "tokenA",
          "type": "address"
        },
        {
          "internalType": "address",
          "name": "tokenB",
          "type": "address"
        },
        {
          "internalType": "uint256",
          "name": "amountADesired",
          "type": "uint256"
        },
        {
          "internalType": "uint256",
          "name": "amountBDesired",
          "type": "uint256"
        },
        {
          "internalType": "uint256",
          "name": "amountAMin",
          "type": "uint256"
        },
        {
          "internalType": "uint256",
          "name": "amountBMin",
          "type": "uint256"
        }
      ],
      "name": "depositLiquidity",
      "outputs": [
        {
          "internalType": "uint256",
          "name": "amountA",
          "type": "uint256"
        },
        {
          "internalType": "uint256",
          "name": "amountB",
          "type": "uint256"
        }
      ],
      "stateMutability": "nonpayable",
      "type": "function"
    }
  ],
  "bytecode": "0x608060405234801561001057600080fd5b50610203806100206000396000f3fe608060405234801561001057600080fd5b506004361061002b5760003560e01c8063fbb7169e14610030575b600080fd5b61004a60048036038101906100459190610108565b610061565b6040516100589291906101a4565b60405180910390f35b600080965096945050505050565b600080fd5b600073ffffffffffffffffffffffffffffffffffffffff82169050919050565b600061009f82610074565b9050919050565b6100af81610094565b81146100ba57600080fd5b50565b6000813590506100cc816100a6565b92915050565b6000819050919050565b6100e5816100d2565b81146100f057600080fd5b50565b600081359050610102816100dc565b92915050565b60008060008060008060c087890312156101255761012461006f565b5b600061013389828a016100bd565b965050602061014489828a016100bd565b955050604061015589828a016100f3565b945050606061016689828a016100f3565b935050608061017789828a016100f3565b92505060a061018889828a016100f3565b9150509295509295509295565b61019e816100d2565b82525050565b60006040820190506101b96000830185610195565b6101c66020830184610195565b939250505056fea264697066735822122016162ec492cc1b6c373c784d869c21ac6231f491b88ec6936376ef7443d37dfb64736f6c63430008110033",
  "linkReferences": {},
  "deployedLinkReferences": {}
}