{
  "_format": "hh-sol-artifact-1",
  "contractName": "TradingPairExchange",
  "sourceName": "contracts/core/TradingPairExchange.sol",
  "abi": [
    {
      "inputs": [],
      "stateMutability": "nonpayable",
      "type": "constructor"
    },
    {
      "anonymous": false,
      "inputs": [
        {
          "indexed": true,
          "internalType": "address",
          "name": "sender",
          "type": "address"
        },
        {
          "indexed": false,
          "internalType": "uint256",
          "name": "amount0",
          "type": "uint256"
        },
        {
          "indexed": false,
          "internalType": "uint256",
          "name": "amount1",
          "type": "uint256"
        }
      ],
      "name": "Mint",
      "type": "event"
    },
    {
      "inputs": [],
      "name": "factoryAddr",
      "outputs": [
        {
          "internalType": "address",
          "name": "",
          "type": "address"
        }
      ],
      "stateMutability": "view",
      "type": "function"
    },
    {
      "inputs": [],
      "name": "getReserves",
      "outputs": [
        {
          "internalType": "uint112",
          "name": "_reserve0",
          "type": "uint112"
        },
        {
          "internalType": "uint112",
          "name": "_reserve1",
          "type": "uint112"
        },
        {
          "internalType": "uint32",
          "name": "_blockTimestampLast",
          "type": "uint32"
        }
      ],
      "stateMutability": "view",
      "type": "function"
    },
    {
      "inputs": [
        {
          "internalType": "address",
          "name": "_tokenA",
          "type": "address"
        },
        {
          "internalType": "address",
          "name": "_tokenB",
          "type": "address"
        }
      ],
      "name": "initialize",
      "outputs": [],
      "stateMutability": "nonpayable",
      "type": "function"
    },
    {
      "inputs": [
        {
          "internalType": "address",
          "name": "to",
          "type": "address"
        }
      ],
      "name": "mint",
      "outputs": [
        {
          "internalType": "uint256",
          "name": "liquidity",
          "type": "uint256"
        }
      ],
      "stateMutability": "nonpayable",
      "type": "function"
    },
    {
      "inputs": [],
      "name": "tokenA",
      "outputs": [
        {
          "internalType": "address",
          "name": "",
          "type": "address"
        }
      ],
      "stateMutability": "view",
      "type": "function"
    },
    {
      "inputs": [],
      "name": "tokenB",
      "outputs": [
        {
          "internalType": "address",
          "name": "",
          "type": "address"
        }
      ],
      "stateMutability": "view",
      "type": "function"
    }
  ],
  "bytecode": "0x608060405234801561001057600080fd5b50336000806101000a81548173ffffffffffffffffffffffffffffffffffffffff021916908373ffffffffffffffffffffffffffffffffffffffff160217905550610a2a806100606000396000f3fe608060405234801561001057600080fd5b50600436106100625760003560e01c80630902f1ac146100675780630fc63d1014610087578063485cc955146100a55780635f64b55b146100c15780636a627842146100df578063963671be1461010f575b600080fd5b61006f61012d565b60405161007e93929190610661565b60405180910390f35b61008f61018a565b60405161009c91906106d9565b60405180910390f35b6100bf60048036038101906100ba9190610725565b6101b0565b005b6100c96102c4565b6040516100d691906106d9565b60405180910390f35b6100f960048036038101906100f49190610765565b6102ea565b60405161010691906107ab565b60405180910390f35b6101176104e1565b60405161012491906106d9565b60405180910390f35b6000806000600360009054906101000a90046dffffffffffffffffffffffffffff1692506003600e9054906101000a90046dffffffffffffffffffffffffffff1691506003601c9054906101000a900463ffffffff169050909192565b600160009054906101000a900473ffffffffffffffffffffffffffffffffffffffff1681565b60008054906101000a900473ffffffffffffffffffffffffffffffffffffffff1673ffffffffffffffffffffffffffffffffffffffff163373ffffffffffffffffffffffffffffffffffffffff161461023e576040517f08c379a000000000000000000000000000000000000000000000000000000000815260040161023590610823565b60405180910390fd5b81600160006101000a81548173ffffffffffffffffffffffffffffffffffffffff021916908373ffffffffffffffffffffffffffffffffffffffff16021790555080600260006101000a81548173ffffffffffffffffffffffffffffffffffffffff021916908373ffffffffffffffffffffffffffffffffffffffff1602179055505050565b600260009054906101000a900473ffffffffffffffffffffffffffffffffffffffff1681565b60008060006102f761012d565b50915091506000600160009054906101000a900473ffffffffffffffffffffffffffffffffffffffff1673ffffffffffffffffffffffffffffffffffffffff166370a08231306040518263ffffffff1660e01b815260040161035991906106d9565b602060405180830381865afa158015610376573d6000803e3d6000fd5b505050506040513d601f19601f8201168201806040525081019061039a919061086f565b90506000600260009054906101000a900473ffffffffffffffffffffffffffffffffffffffff1673ffffffffffffffffffffffffffffffffffffffff166370a08231306040518263ffffffff1660e01b81526004016103f991906106d9565b602060405180830381865afa158015610416573d6000803e3d6000fd5b505050506040513d601f19601f8201168201806040525081019061043a919061086f565b90506000846dffffffffffffffffffffffffffff168361045a91906108cb565b90506000846dffffffffffffffffffffffffffff168361047a91906108cb565b90506104868484610505565b3373ffffffffffffffffffffffffffffffffffffffff167f4c209b5fc8ad50758f13e2e1088ba56a560dff690a1c6fef26394f4c03821c4f83836040516104ce9291906108ff565b60405180910390a2505050505050919050565b60008054906101000a900473ffffffffffffffffffffffffffffffffffffffff1681565b6dffffffffffffffffffffffffffff8016821115801561053557506dffffffffffffffffffffffffffff80168111155b610574576040517f08c379a000000000000000000000000000000000000000000000000000000000815260040161056b90610974565b60405180910390fd5b81600360006101000a8154816dffffffffffffffffffffffffffff02191690836dffffffffffffffffffffffffffff160217905550806003600e6101000a8154816dffffffffffffffffffffffffffff02191690836dffffffffffffffffffffffffffff1602179055506000640100000000426105f191906109c3565b9050806003601c6101000a81548163ffffffff021916908363ffffffff160217905550505050565b60006dffffffffffffffffffffffffffff82169050919050565b61063c81610619565b82525050565b600063ffffffff82169050919050565b61065b81610642565b82525050565b60006060820190506106766000830186610633565b6106836020830185610633565b6106906040830184610652565b949350505050565b600073ffffffffffffffffffffffffffffffffffffffff82169050919050565b60006106c382610698565b9050919050565b6106d3816106b8565b82525050565b60006020820190506106ee60008301846106ca565b92915050565b600080fd5b610702816106b8565b811461070d57600080fd5b50565b60008135905061071f816106f9565b92915050565b6000806040838503121561073c5761073b6106f4565b5b600061074a85828601610710565b925050602061075b85828601610710565b9150509250929050565b60006020828403121561077b5761077a6106f4565b5b600061078984828501610710565b91505092915050565b6000819050919050565b6107a581610792565b82525050565b60006020820190506107c0600083018461079c565b92915050565b600082825260208201905092915050565b7f4445583a20464f5242494444454e000000000000000000000000000000000000600082015250565b600061080d600e836107c6565b9150610818826107d7565b602082019050919050565b6000602082019050818103600083015261083c81610800565b9050919050565b61084c81610792565b811461085757600080fd5b50565b60008151905061086981610843565b92915050565b600060208284031215610885576108846106f4565b5b60006108938482850161085a565b91505092915050565b7f4e487b7100000000000000000000000000000000000000000000000000000000600052601160045260246000fd5b60006108d682610792565b91506108e183610792565b92508282039050818111156108f9576108f861089c565b5b92915050565b6000604082019050610914600083018561079c565b610921602083018461079c565b9392505050565b7f4445583a204f564552464c4f5700000000000000000000000000000000000000600082015250565b600061095e600d836107c6565b915061096982610928565b602082019050919050565b6000602082019050818103600083015261098d81610951565b9050919050565b7f4e487b7100000000000000000000000000000000000000000000000000000000600052601260045260246000fd5b60006109ce82610792565b91506109d983610792565b9250826109e9576109e8610994565b5b82820690509291505056fea2646970667358221220c2930b03aa8fff21b5a7ea4e264757feb234987b9ca8cb48482ea933fa11b59a64736f6c63430008110033",
  "linkReferences": {},
  "deployedLinkReferences": {}
}