{
  "_format": "hh-sol-artifact-1",
  "contractName": "TradingPairExchange",
  "sourceName": "contracts/core/TradingPairExchange.sol",
  "abi": [
    {
      "inputs": [],
      "stateMutability": "nonpayable",
      "type": "constructor"
    },
    {
      "anonymous": false,
      "inputs": [
        {
          "indexed": true,
          "internalType": "address",
          "name": "owner",
          "type": "address"
        },
        {
          "indexed": true,
          "internalType": "address",
          "name": "spender",
          "type": "address"
        },
        {
          "indexed": false,
          "internalType": "uint256",
          "name": "value",
          "type": "uint256"
        }
      ],
      "name": "Approval",
      "type": "event"
    },
    {
      "anonymous": false,
      "inputs": [
        {
          "indexed": true,
          "internalType": "address",
          "name": "sender",
          "type": "address"
        },
        {
          "indexed": false,
          "internalType": "uint256",
          "name": "amount0",
          "type": "uint256"
        },
        {
          "indexed": false,
          "internalType": "uint256",
          "name": "amount1",
          "type": "uint256"
        },
        {
          "indexed": true,
          "internalType": "address",
          "name": "to",
          "type": "address"
        }
      ],
      "name": "Burn",
      "type": "event"
    },
    {
      "anonymous": false,
      "inputs": [
        {
          "indexed": true,
          "internalType": "address",
          "name": "sender",
          "type": "address"
        },
        {
          "indexed": false,
          "internalType": "uint256",
          "name": "amount0",
          "type": "uint256"
        },
        {
          "indexed": false,
          "internalType": "uint256",
          "name": "amount1",
          "type": "uint256"
        }
      ],
      "name": "Mint",
      "type": "event"
    },
    {
      "anonymous": false,
      "inputs": [
        {
          "indexed": true,
          "internalType": "address",
          "name": "from",
          "type": "address"
        },
        {
          "indexed": true,
          "internalType": "address",
          "name": "to",
          "type": "address"
        },
        {
          "indexed": false,
          "internalType": "uint256",
          "name": "value",
          "type": "uint256"
        }
      ],
      "name": "Transfer",
      "type": "event"
    },
    {
      "inputs": [],
      "name": "MINIMUM_LIQUIDITY",
      "outputs": [
        {
          "internalType": "uint256",
          "name": "",
          "type": "uint256"
        }
      ],
      "stateMutability": "view",
      "type": "function"
    },
    {
      "inputs": [
        {
          "internalType": "address",
          "name": "",
          "type": "address"
        },
        {
          "internalType": "address",
          "name": "",
          "type": "address"
        }
      ],
      "name": "allowance",
      "outputs": [
        {
          "internalType": "uint256",
          "name": "",
          "type": "uint256"
        }
      ],
      "stateMutability": "view",
      "type": "function"
    },
    {
      "inputs": [
        {
          "internalType": "address",
          "name": "spender",
          "type": "address"
        },
        {
          "internalType": "uint256",
          "name": "value",
          "type": "uint256"
        }
      ],
      "name": "approve",
      "outputs": [
        {
          "internalType": "bool",
          "name": "",
          "type": "bool"
        }
      ],
      "stateMutability": "nonpayable",
      "type": "function"
    },
    {
      "inputs": [
        {
          "internalType": "address",
          "name": "",
          "type": "address"
        }
      ],
      "name": "balanceOf",
      "outputs": [
        {
          "internalType": "uint256",
          "name": "",
          "type": "uint256"
        }
      ],
      "stateMutability": "view",
      "type": "function"
    },
    {
      "inputs": [
        {
          "internalType": "address",
          "name": "to",
          "type": "address"
        }
      ],
      "name": "burn",
      "outputs": [
        {
          "internalType": "uint256",
          "name": "amountASent",
          "type": "uint256"
        },
        {
          "internalType": "uint256",
          "name": "amountBSent",
          "type": "uint256"
        }
      ],
      "stateMutability": "nonpayable",
      "type": "function"
    },
    {
      "inputs": [],
      "name": "decimals",
      "outputs": [
        {
          "internalType": "uint8",
          "name": "",
          "type": "uint8"
        }
      ],
      "stateMutability": "view",
      "type": "function"
    },
    {
      "inputs": [],
      "name": "factoryAddr",
      "outputs": [
        {
          "internalType": "address",
          "name": "",
          "type": "address"
        }
      ],
      "stateMutability": "view",
      "type": "function"
    },
    {
      "inputs": [],
      "name": "getReserves",
      "outputs": [
        {
          "internalType": "uint112",
          "name": "_reserve0",
          "type": "uint112"
        },
        {
          "internalType": "uint112",
          "name": "_reserve1",
          "type": "uint112"
        },
        {
          "internalType": "uint32",
          "name": "_blockTimestampLast",
          "type": "uint32"
        }
      ],
      "stateMutability": "view",
      "type": "function"
    },
    {
      "inputs": [
        {
          "internalType": "address",
          "name": "_tokenA",
          "type": "address"
        },
        {
          "internalType": "address",
          "name": "_tokenB",
          "type": "address"
        }
      ],
      "name": "initialize",
      "outputs": [],
      "stateMutability": "nonpayable",
      "type": "function"
    },
    {
      "inputs": [],
      "name": "kLast",
      "outputs": [
        {
          "internalType": "uint256",
          "name": "",
          "type": "uint256"
        }
      ],
      "stateMutability": "view",
      "type": "function"
    },
    {
      "inputs": [
        {
          "internalType": "address",
          "name": "to",
          "type": "address"
        }
      ],
      "name": "mint",
      "outputs": [
        {
          "internalType": "uint256",
          "name": "liquidity",
          "type": "uint256"
        }
      ],
      "stateMutability": "nonpayable",
      "type": "function"
    },
    {
      "inputs": [],
      "name": "name",
      "outputs": [
        {
          "internalType": "string",
          "name": "",
          "type": "string"
        }
      ],
      "stateMutability": "view",
      "type": "function"
    },
    {
      "inputs": [],
      "name": "symbol",
      "outputs": [
        {
          "internalType": "string",
          "name": "",
          "type": "string"
        }
      ],
      "stateMutability": "view",
      "type": "function"
    },
    {
      "inputs": [],
      "name": "tokenA",
      "outputs": [
        {
          "internalType": "address",
          "name": "",
          "type": "address"
        }
      ],
      "stateMutability": "view",
      "type": "function"
    },
    {
      "inputs": [],
      "name": "tokenB",
      "outputs": [
        {
          "internalType": "address",
          "name": "",
          "type": "address"
        }
      ],
      "stateMutability": "view",
      "type": "function"
    },
    {
      "inputs": [],
      "name": "totalSupply",
      "outputs": [
        {
          "internalType": "uint256",
          "name": "",
          "type": "uint256"
        }
      ],
      "stateMutability": "view",
      "type": "function"
    },
    {
      "inputs": [
        {
          "internalType": "address",
          "name": "to",
          "type": "address"
        },
        {
          "internalType": "uint256",
          "name": "value",
          "type": "uint256"
        }
      ],
      "name": "transfer",
      "outputs": [
        {
          "internalType": "bool",
          "name": "",
          "type": "bool"
        }
      ],
      "stateMutability": "nonpayable",
      "type": "function"
    },
    {
      "inputs": [
        {
          "internalType": "address",
          "name": "from",
          "type": "address"
        },
        {
          "internalType": "address",
          "name": "to",
          "type": "address"
        },
        {
          "internalType": "uint256",
          "name": "value",
          "type": "uint256"
        }
      ],
      "name": "transferFrom",
      "outputs": [
        {
          "internalType": "bool",
          "name": "",
          "type": "bool"
        }
      ],
      "stateMutability": "nonpayable",
      "type": "function"
    }
  ],
  "bytecode": "0x6080604052600160085534801561001557600080fd5b5033600360006101000a81548173ffffffffffffffffffffffffffffffffffffffff021916908373ffffffffffffffffffffffffffffffffffffffff160217905550612498806100666000396000f3fe608060405234801561001057600080fd5b50600436106101165760003560e01c80636a627842116100a257806395d89b411161007157806395d89b41146102fc578063963671be1461031a578063a9059cbb14610338578063ba9a7a5614610368578063dd62ed3e1461038657610116565b80636a6278421461024d57806370a082311461027d5780637464fc3d146102ad57806389afcb44146102cb57610116565b806318160ddd116100e957806318160ddd146101a757806323b872dd146101c5578063313ce567146101f5578063485cc955146102135780635f64b55b1461022f57610116565b806306fdde031461011b5780630902f1ac14610139578063095ea7b3146101595780630fc63d1014610189575b600080fd5b6101236103b6565b6040516101309190611b09565b60405180910390f35b6101416103d2565b60405161015093929190611b73565b60405180910390f35b610173600480360381019061016e9190611c43565b61042f565b6040516101809190611c9e565b60405180910390f35b610191610446565b60405161019e9190611cc8565b60405180910390f35b6101af61046c565b6040516101bc9190611cf2565b60405180910390f35b6101df60048036038101906101da9190611d0d565b610472565b6040516101ec9190611c9e565b60405180910390f35b6101fd61048d565b60405161020a9190611d7c565b60405180910390f35b61022d60048036038101906102289190611d97565b610492565b005b6102376105a8565b6040516102449190611cc8565b60405180910390f35b61026760048036038101906102629190611dd7565b6105ce565b6040516102749190611cf2565b60405180910390f35b61029760048036038101906102929190611dd7565b610982565b6040516102a49190611cf2565b60405180910390f35b6102b561099a565b6040516102c29190611cf2565b60405180910390f35b6102e560048036038101906102e09190611dd7565b6109a0565b6040516102f3929190611e04565b60405180910390f35b610304610e31565b6040516103119190611b09565b60405180910390f35b610322610e6a565b60405161032f9190611cc8565b60405180910390f35b610352600480360381019061034d9190611c43565b610e90565b60405161035f9190611c9e565b60405180910390f35b610370610ea7565b60405161037d9190611cf2565b60405180910390f35b6103a0600480360381019061039b9190611d97565b610ead565b6040516103ad9190611cf2565b60405180910390f35b60405180606001604052806027815260200161243c6027913981565b6000806000600660009054906101000a90046dffffffffffffffffffffffffffff1692506006600e9054906101000a90046dffffffffffffffffffffffffffff1691506006601c9054906101000a900463ffffffff169050909192565b600061043c338484610ed2565b6001905092915050565b600460009054906101000a900473ffffffffffffffffffffffffffffffffffffffff1681565b60005481565b600080610480858585610fbd565b9050809150509392505050565b601281565b600360009054906101000a900473ffffffffffffffffffffffffffffffffffffffff1673ffffffffffffffffffffffffffffffffffffffff163373ffffffffffffffffffffffffffffffffffffffff1614610522576040517f08c379a000000000000000000000000000000000000000000000000000000000815260040161051990611e79565b60405180910390fd5b81600460006101000a81548173ffffffffffffffffffffffffffffffffffffffff021916908373ffffffffffffffffffffffffffffffffffffffff16021790555080600560006101000a81548173ffffffffffffffffffffffffffffffffffffffff021916908373ffffffffffffffffffffffffffffffffffffffff1602179055505050565b600560009054906101000a900473ffffffffffffffffffffffffffffffffffffffff1681565b6000600160085414610615576040517f08c379a000000000000000000000000000000000000000000000000000000000815260040161060c90611ee5565b60405180910390fd5b60006008819055506000806106286103d2565b50915091506000600460009054906101000a900473ffffffffffffffffffffffffffffffffffffffff1673ffffffffffffffffffffffffffffffffffffffff166370a08231306040518263ffffffff1660e01b815260040161068a9190611cc8565b602060405180830381865afa1580156106a7573d6000803e3d6000fd5b505050506040513d601f19601f820116820180604052508101906106cb9190611f1a565b90506000600560009054906101000a900473ffffffffffffffffffffffffffffffffffffffff1673ffffffffffffffffffffffffffffffffffffffff166370a08231306040518263ffffffff1660e01b815260040161072a9190611cc8565b602060405180830381865afa158015610747573d6000803e3d6000fd5b505050506040513d601f19601f8201168201806040525081019061076b9190611f1a565b90506000846dffffffffffffffffffffffffffff168361078b9190611f76565b90506000846dffffffffffffffffffffffffffff16836107ab9190611f76565b905060006107b98787611181565b9050600080549050600081036107fe576103e86107e084866107db9190611faa565b61132d565b6107ea9190611f76565b98506107f960006103e86113a7565b61088f565b61088c600660009054906101000a90046dffffffffffffffffffffffffffff166dffffffffffffffffffffffffffff16828661083a9190611faa565b610844919061201b565b6006600e9054906101000a90046dffffffffffffffffffffffffffff166dffffffffffffffffffffffffffff16838661087d9190611faa565b610887919061201b565b6114b3565b98505b600089116108d2576040517f08c379a00000000000000000000000000000000000000000000000000000000081526004016108c9906120be565b60405180910390fd5b6108dc8a8a6113a7565b6108e686866114cc565b811561091d57610916886dffffffffffffffffffffffffffff16886dffffffffffffffffffffffffffff166115e0565b6007819055505b3373ffffffffffffffffffffffffffffffffffffffff167f4c209b5fc8ad50758f13e2e1088ba56a560dff690a1c6fef26394f4c03821c4f8585604051610965929190611e04565b60405180910390a250505050505050506001600881905550919050565b60016020528060005260406000206000915090505481565b60075481565b6000806001600854146109e8576040517f08c379a00000000000000000000000000000000000000000000000000000000081526004016109df90611ee5565b60405180910390fd5b60006008819055506000806109fb6103d2565b50915091506000600460009054906101000a900473ffffffffffffffffffffffffffffffffffffffff1690506000600560009054906101000a900473ffffffffffffffffffffffffffffffffffffffff16905060008273ffffffffffffffffffffffffffffffffffffffff166370a08231306040518263ffffffff1660e01b8152600401610a899190611cc8565b602060405180830381865afa158015610aa6573d6000803e3d6000fd5b505050506040513d601f19601f82011682018060405250810190610aca9190611f1a565b905060008273ffffffffffffffffffffffffffffffffffffffff166370a08231306040518263ffffffff1660e01b8152600401610b079190611cc8565b602060405180830381865afa158015610b24573d6000803e3d6000fd5b505050506040513d601f19601f82011682018060405250810190610b489190611f1a565b90506000600160003073ffffffffffffffffffffffffffffffffffffffff1673ffffffffffffffffffffffffffffffffffffffff1681526020019081526020016000205490506000610b9a8888611181565b9050600080549050808584610baf9190611faa565b610bb9919061201b565b9a50808484610bc89190611faa565b610bd2919061201b565b995060008b118015610be4575060008a115b610c23576040517f08c379a0000000000000000000000000000000000000000000000000000000008152600401610c1a90612150565b60405180910390fd5b610c2d308461165d565b610c38878d8d611769565b610c43868d8c611769565b8673ffffffffffffffffffffffffffffffffffffffff166370a08231306040518263ffffffff1660e01b8152600401610c7c9190611cc8565b602060405180830381865afa158015610c99573d6000803e3d6000fd5b505050506040513d601f19601f82011682018060405250810190610cbd9190611f1a565b94508573ffffffffffffffffffffffffffffffffffffffff166370a08231306040518263ffffffff1660e01b8152600401610cf89190611cc8565b602060405180830381865afa158015610d15573d6000803e3d6000fd5b505050506040513d601f19601f82011682018060405250810190610d399190611f1a565b9350610d4585856114cc565b8115610db457610dad600660009054906101000a90046dffffffffffffffffffffffffffff166dffffffffffffffffffffffffffff166006600e9054906101000a90046dffffffffffffffffffffffffffff166dffffffffffffffffffffffffffff166115e0565b6007819055505b8b73ffffffffffffffffffffffffffffffffffffffff163373ffffffffffffffffffffffffffffffffffffffff167fdccd412f0b1252819cb1fd330b93224ca42612892bb3f4f789976e6d819364968d8d604051610e13929190611e04565b60405180910390a35050505050505050506001600881905550915091565b6040518060400160405280600481526020017f4d5644450000000000000000000000000000000000000000000000000000000081525081565b600360009054906101000a900473ffffffffffffffffffffffffffffffffffffffff1681565b6000610e9d3384846118f3565b6001905092915050565b6103e881565b6002602052816000526040600020602052806000526040600020600091509150505481565b80600260008573ffffffffffffffffffffffffffffffffffffffff1673ffffffffffffffffffffffffffffffffffffffff16815260200190815260200160002060008473ffffffffffffffffffffffffffffffffffffffff1673ffffffffffffffffffffffffffffffffffffffff168152602001908152602001600020819055508173ffffffffffffffffffffffffffffffffffffffff168373ffffffffffffffffffffffffffffffffffffffff167f8c5be1e5ebec7d5bd14f71427d1e84f3dd0314c0f7b2291e5b200ac8c7c3b92583604051610fb09190611cf2565b60405180910390a3505050565b60007fffffffffffffffffffffffffffffffffffffffffffffffffffffffffffffffff600260008673ffffffffffffffffffffffffffffffffffffffff1673ffffffffffffffffffffffffffffffffffffffff16815260200190815260200160002060003373ffffffffffffffffffffffffffffffffffffffff1673ffffffffffffffffffffffffffffffffffffffff168152602001908152602001600020541461116b5781600260008673ffffffffffffffffffffffffffffffffffffffff1673ffffffffffffffffffffffffffffffffffffffff16815260200190815260200160002060003373ffffffffffffffffffffffffffffffffffffffff1673ffffffffffffffffffffffffffffffffffffffff168152602001908152602001600020546110ea9190611f76565b600260008673ffffffffffffffffffffffffffffffffffffffff1673ffffffffffffffffffffffffffffffffffffffff16815260200190815260200160002060003373ffffffffffffffffffffffffffffffffffffffff1673ffffffffffffffffffffffffffffffffffffffff168152602001908152602001600020819055505b6111768484846118f3565b600190509392505050565b600080600360009054906101000a900473ffffffffffffffffffffffffffffffffffffffff1673ffffffffffffffffffffffffffffffffffffffff1663017e7e586040518163ffffffff1660e01b8152600401602060405180830381865afa1580156111f1573d6000803e3d6000fd5b505050506040513d601f19601f820116820180604052508101906112159190612185565b9050600073ffffffffffffffffffffffffffffffffffffffff168173ffffffffffffffffffffffffffffffffffffffff1614159150600060075490508215611313576000811461130e57600061129361128e876dffffffffffffffffffffffffffff16876dffffffffffffffffffffffffffff166115e0565b61132d565b905060006112a08361132d565b90508082111561130b57600081836112b89190611f76565b6000546112c59190611faa565b90506000826005856112d79190611faa565b6112e191906121b2565b9050600081836112f1919061201b565b905060008111156113075761130687826113a7565b5b5050505b50505b611325565b600081146113245760006007819055505b5b505092915050565b60006003821115611394578190506000600160028461134c919061201b565b61135691906121b2565b90505b8181101561138e578091506002818285611373919061201b565b61137d91906121b2565b611387919061201b565b9050611359565b506113a2565b600082146113a157600190505b5b919050565b806000546113b591906121b2565b60008190555080600160008473ffffffffffffffffffffffffffffffffffffffff1673ffffffffffffffffffffffffffffffffffffffff1681526020019081526020016000205461140691906121b2565b600160008473ffffffffffffffffffffffffffffffffffffffff1673ffffffffffffffffffffffffffffffffffffffff168152602001908152602001600020819055508173ffffffffffffffffffffffffffffffffffffffff16600073ffffffffffffffffffffffffffffffffffffffff167fddf252ad1be2c89b69c2b068fc378daa952ba7f163c4a11628f55a4df523b3ef836040516114a79190611cf2565b60405180910390a35050565b60008183106114c257816114c4565b825b905092915050565b6dffffffffffffffffffffffffffff801682111580156114fc57506dffffffffffffffffffffffffffff80168111155b61153b576040517f08c379a000000000000000000000000000000000000000000000000000000000815260040161153290612232565b60405180910390fd5b81600660006101000a8154816dffffffffffffffffffffffffffff02191690836dffffffffffffffffffffffffffff160217905550806006600e6101000a8154816dffffffffffffffffffffffffffff02191690836dffffffffffffffffffffffffffff1602179055506000640100000000426115b89190612252565b9050806006601c6101000a81548163ffffffff021916908363ffffffff160217905550505050565b600081830290507fffffffffffffffffffffffffffffffffffffffffffffffffffffffffffffffff8111158015611618575060008110155b611657576040517f08c379a000000000000000000000000000000000000000000000000000000000815260040161164e906122cf565b60405180910390fd5b92915050565b80600160008473ffffffffffffffffffffffffffffffffffffffff1673ffffffffffffffffffffffffffffffffffffffff168152602001908152602001600020546116a89190611f76565b600160008473ffffffffffffffffffffffffffffffffffffffff1673ffffffffffffffffffffffffffffffffffffffff16815260200190815260200160002081905550806000546116f99190611f76565b600081905550600073ffffffffffffffffffffffffffffffffffffffff168273ffffffffffffffffffffffffffffffffffffffff167fddf252ad1be2c89b69c2b068fc378daa952ba7f163c4a11628f55a4df523b3ef8360405161175d9190611cf2565b60405180910390a35050565b6000808473ffffffffffffffffffffffffffffffffffffffff166040518060400160405280601981526020017f7472616e7366657228616464726573732c75696e7432353629000000000000008152508051906020012085856040516024016117d39291906122ef565b604051602081830303815290604052907bffffffffffffffffffffffffffffffffffffffffffffffffffffffff19166020820180517bffffffffffffffffffffffffffffffffffffffffffffffffffffffff838183161783525050505060405161183d919061235f565b6000604051808303816000865af19150503d806000811461187a576040519150601f19603f3d011682016040523d82523d6000602084013e61187f565b606091505b50915091508180156118ad57506000815114806118ac5750808060200190518101906118ab91906123a2565b5b5b6118ec576040517f08c379a00000000000000000000000000000000000000000000000000000000081526004016118e39061241b565b60405180910390fd5b5050505050565b80600160008573ffffffffffffffffffffffffffffffffffffffff1673ffffffffffffffffffffffffffffffffffffffff1681526020019081526020016000205461193e9190611f76565b600160008573ffffffffffffffffffffffffffffffffffffffff1673ffffffffffffffffffffffffffffffffffffffff1681526020019081526020016000208190555080600160008473ffffffffffffffffffffffffffffffffffffffff1673ffffffffffffffffffffffffffffffffffffffff168152602001908152602001600020546119cc91906121b2565b600160008473ffffffffffffffffffffffffffffffffffffffff1673ffffffffffffffffffffffffffffffffffffffff168152602001908152602001600020819055508173ffffffffffffffffffffffffffffffffffffffff168373ffffffffffffffffffffffffffffffffffffffff167fddf252ad1be2c89b69c2b068fc378daa952ba7f163c4a11628f55a4df523b3ef83604051611a6c9190611cf2565b60405180910390a3505050565b600081519050919050565b600082825260208201905092915050565b60005b83811015611ab3578082015181840152602081019050611a98565b60008484015250505050565b6000601f19601f8301169050919050565b6000611adb82611a79565b611ae58185611a84565b9350611af5818560208601611a95565b611afe81611abf565b840191505092915050565b60006020820190508181036000830152611b238184611ad0565b905092915050565b60006dffffffffffffffffffffffffffff82169050919050565b611b4e81611b2b565b82525050565b600063ffffffff82169050919050565b611b6d81611b54565b82525050565b6000606082019050611b886000830186611b45565b611b956020830185611b45565b611ba26040830184611b64565b949350505050565b600080fd5b600073ffffffffffffffffffffffffffffffffffffffff82169050919050565b6000611bda82611baf565b9050919050565b611bea81611bcf565b8114611bf557600080fd5b50565b600081359050611c0781611be1565b92915050565b6000819050919050565b611c2081611c0d565b8114611c2b57600080fd5b50565b600081359050611c3d81611c17565b92915050565b60008060408385031215611c5a57611c59611baa565b5b6000611c6885828601611bf8565b9250506020611c7985828601611c2e565b9150509250929050565b60008115159050919050565b611c9881611c83565b82525050565b6000602082019050611cb36000830184611c8f565b92915050565b611cc281611bcf565b82525050565b6000602082019050611cdd6000830184611cb9565b92915050565b611cec81611c0d565b82525050565b6000602082019050611d076000830184611ce3565b92915050565b600080600060608486031215611d2657611d25611baa565b5b6000611d3486828701611bf8565b9350506020611d4586828701611bf8565b9250506040611d5686828701611c2e565b9150509250925092565b600060ff82169050919050565b611d7681611d60565b82525050565b6000602082019050611d916000830184611d6d565b92915050565b60008060408385031215611dae57611dad611baa565b5b6000611dbc85828601611bf8565b9250506020611dcd85828601611bf8565b9150509250929050565b600060208284031215611ded57611dec611baa565b5b6000611dfb84828501611bf8565b91505092915050565b6000604082019050611e196000830185611ce3565b611e266020830184611ce3565b9392505050565b7f4445583a20464f5242494444454e000000000000000000000000000000000000600082015250565b6000611e63600e83611a84565b9150611e6e82611e2d565b602082019050919050565b60006020820190508181036000830152611e9281611e56565b9050919050565b7f4445583a204c4f434b4544000000000000000000000000000000000000000000600082015250565b6000611ecf600b83611a84565b9150611eda82611e99565b602082019050919050565b60006020820190508181036000830152611efe81611ec2565b9050919050565b600081519050611f1481611c17565b92915050565b600060208284031215611f3057611f2f611baa565b5b6000611f3e84828501611f05565b91505092915050565b7f4e487b7100000000000000000000000000000000000000000000000000000000600052601160045260246000fd5b6000611f8182611c0d565b9150611f8c83611c0d565b9250828203905081811115611fa457611fa3611f47565b5b92915050565b6000611fb582611c0d565b9150611fc083611c0d565b9250828202611fce81611c0d565b91508282048414831517611fe557611fe4611f47565b5b5092915050565b7f4e487b7100000000000000000000000000000000000000000000000000000000600052601260045260246000fd5b600061202682611c0d565b915061203183611c0d565b92508261204157612040611fec565b5b828204905092915050565b7f4445583a20494e53554646494349454e545f4c49515549444954595f4d494e5460008201527f4544000000000000000000000000000000000000000000000000000000000000602082015250565b60006120a8602283611a84565b91506120b38261204c565b604082019050919050565b600060208201905081810360008301526120d78161209b565b9050919050565b7f4445583a20494e53554646494349454e545f4c49515549444954595f4255524e60008201527f4544000000000000000000000000000000000000000000000000000000000000602082015250565b600061213a602283611a84565b9150612145826120de565b604082019050919050565b600060208201905081810360008301526121698161212d565b9050919050565b60008151905061217f81611be1565b92915050565b60006020828403121561219b5761219a611baa565b5b60006121a984828501612170565b91505092915050565b60006121bd82611c0d565b91506121c883611c0d565b92508282019050808211156121e0576121df611f47565b5b92915050565b7f4445583a204f564552464c4f5700000000000000000000000000000000000000600082015250565b600061221c600d83611a84565b9150612227826121e6565b602082019050919050565b6000602082019050818103600083015261224b8161220f565b9050919050565b600061225d82611c0d565b915061226883611c0d565b92508261227857612277611fec565b5b828206905092915050565b7f6f766572666c6f772f756e646572666c6f770000000000000000000000000000600082015250565b60006122b9601283611a84565b91506122c482612283565b602082019050919050565b600060208201905081810360008301526122e8816122ac565b9050919050565b60006040820190506123046000830185611cb9565b6123116020830184611ce3565b9392505050565b600081519050919050565b600081905092915050565b600061233982612318565b6123438185612323565b9350612353818560208601611a95565b80840191505092915050565b600061236b828461232e565b915081905092915050565b61237f81611c83565b811461238a57600080fd5b50565b60008151905061239c81612376565b92915050565b6000602082840312156123b8576123b7611baa565b5b60006123c68482850161238d565b91505092915050565b7f4445583a205452414e534645525f4641494c4544000000000000000000000000600082015250565b6000612405601483611a84565b9150612410826123cf565b602082019050919050565b60006020820190508181036000830152612434816123f8565b905091905056fe4d696e696d616c6c7920566961626c6520446563656e7472616c697a65642045786368616e6765a2646970667358221220f6b0eed1cc68ee60226383d4420d5cbd5a6ec501e3266883659348dc7d522a4664736f6c63430008110033",
  "linkReferences": {},
  "deployedLinkReferences": {}
}