{
  "_format": "hh-sol-artifact-1",
  "contractName": "Factory",
  "sourceName": "contracts/core/Factory.sol",
  "abi": [
    {
      "inputs": [
        {
          "internalType": "address",
          "name": "_feeToSetter",
          "type": "address"
        }
      ],
      "stateMutability": "nonpayable",
      "type": "constructor"
    },
    {
      "anonymous": false,
      "inputs": [
        {
          "indexed": true,
          "internalType": "address",
          "name": "token0",
          "type": "address"
        },
        {
          "indexed": true,
          "internalType": "address",
          "name": "token1",
          "type": "address"
        },
        {
          "indexed": false,
          "internalType": "address",
          "name": "pair",
          "type": "address"
        },
        {
          "indexed": false,
          "internalType": "uint256",
          "name": "",
          "type": "uint256"
        }
      ],
      "name": "TradingPairCreated",
      "type": "event"
    },
    {
      "inputs": [
        {
          "internalType": "uint256",
          "name": "",
          "type": "uint256"
        }
      ],
      "name": "allTradingPairs",
      "outputs": [
        {
          "internalType": "address",
          "name": "",
          "type": "address"
        }
      ],
      "stateMutability": "view",
      "type": "function"
    },
    {
      "inputs": [
        {
          "internalType": "address",
          "name": "tokenA",
          "type": "address"
        },
        {
          "internalType": "address",
          "name": "tokenB",
          "type": "address"
        }
      ],
      "name": "createTradingPair",
      "outputs": [
        {
          "internalType": "address",
          "name": "pair",
          "type": "address"
        }
      ],
      "stateMutability": "nonpayable",
      "type": "function"
    },
    {
      "inputs": [],
      "name": "feeTo",
      "outputs": [
        {
          "internalType": "address",
          "name": "",
          "type": "address"
        }
      ],
      "stateMutability": "view",
      "type": "function"
    },
    {
      "inputs": [],
      "name": "feeToSetter",
      "outputs": [
        {
          "internalType": "address",
          "name": "",
          "type": "address"
        }
      ],
      "stateMutability": "view",
      "type": "function"
    },
    {
      "inputs": [
        {
          "internalType": "address",
          "name": "",
          "type": "address"
        },
        {
          "internalType": "address",
          "name": "",
          "type": "address"
        }
      ],
      "name": "getTradingPair",
      "outputs": [
        {
          "internalType": "address",
          "name": "",
          "type": "address"
        }
      ],
      "stateMutability": "view",
      "type": "function"
    },
    {
      "inputs": [
        {
          "internalType": "address",
          "name": "_feeTo",
          "type": "address"
        }
      ],
      "name": "setFeeTo",
      "outputs": [],
      "stateMutability": "nonpayable",
      "type": "function"
    }
  ],
  "bytecode": "0x608060405234801561001057600080fd5b50604051612913380380612913833981810160405281019061003291906100db565b806000806101000a81548173ffffffffffffffffffffffffffffffffffffffff021916908373ffffffffffffffffffffffffffffffffffffffff16021790555050610108565b600080fd5b600073ffffffffffffffffffffffffffffffffffffffff82169050919050565b60006100a88261007d565b9050919050565b6100b88161009d565b81146100c357600080fd5b50565b6000815190506100d5816100af565b92915050565b6000602082840312156100f1576100f0610078565b5b60006100ff848285016100c6565b91505092915050565b6127fc806101176000396000f3fe608060405234801561001057600080fd5b50600436106100625760003560e01c8063017e7e5814610067578063094b741514610085578063b6df9a41146100a3578063b7faf78d146100d3578063c729dfcf14610103578063f46901ed14610133575b600080fd5b61006f61014f565b60405161007c91906108c0565b60405180910390f35b61008d610175565b60405161009a91906108c0565b60405180910390f35b6100bd60048036038101906100b89190610916565b610199565b6040516100ca91906108c0565b60405180910390f35b6100ed60048036038101906100e8919061096f565b6101d8565b6040516100fa91906108c0565b60405180910390f35b61011d6004803603810190610118919061096f565b61021a565b60405161012a91906108c0565b60405180910390f35b61014d600480360381019061014891906109af565b6107a0565b005b600160009054906101000a900473ffffffffffffffffffffffffffffffffffffffff1681565b60008054906101000a900473ffffffffffffffffffffffffffffffffffffffff1681565b600381815481106101a957600080fd5b906000526020600020016000915054906101000a900473ffffffffffffffffffffffffffffffffffffffff1681565b60026020528160005260406000206020528060005260406000206000915091509054906101000a900473ffffffffffffffffffffffffffffffffffffffff1681565b60008173ffffffffffffffffffffffffffffffffffffffff168373ffffffffffffffffffffffffffffffffffffffff160361028a576040517f08c379a000000000000000000000000000000000000000000000000000000000815260040161028190610a39565b60405180910390fd5b6000808373ffffffffffffffffffffffffffffffffffffffff168573ffffffffffffffffffffffffffffffffffffffff16106102c75783856102ca565b84845b91509150600073ffffffffffffffffffffffffffffffffffffffff168573ffffffffffffffffffffffffffffffffffffffff16141580156103385750600073ffffffffffffffffffffffffffffffffffffffff168473ffffffffffffffffffffffffffffffffffffffff1614155b610377576040517f08c379a000000000000000000000000000000000000000000000000000000000815260040161036e90610aa5565b60405180910390fd5b600073ffffffffffffffffffffffffffffffffffffffff16600260008473ffffffffffffffffffffffffffffffffffffffff1673ffffffffffffffffffffffffffffffffffffffff16815260200190815260200160002060008373ffffffffffffffffffffffffffffffffffffffff1673ffffffffffffffffffffffffffffffffffffffff16815260200190815260200160002060009054906101000a900473ffffffffffffffffffffffffffffffffffffffff1673ffffffffffffffffffffffffffffffffffffffff1614610482576040517f08c379a000000000000000000000000000000000000000000000000000000000815260040161047990610b11565b60405180910390fd5b60008282604051602001610497929190610b31565b6040516020818303038152906040528051906020012090506000816040516104be90610872565b8190604051809103906000f59050801580156104de573d6000803e3d6000fd5b5090508094508473ffffffffffffffffffffffffffffffffffffffff1663485cc95585856040518363ffffffff1660e01b815260040161051f929190610b31565b600060405180830381600087803b15801561053957600080fd5b505af115801561054d573d6000803e3d6000fd5b5050505084600260008973ffffffffffffffffffffffffffffffffffffffff1673ffffffffffffffffffffffffffffffffffffffff16815260200190815260200160002060008873ffffffffffffffffffffffffffffffffffffffff1673ffffffffffffffffffffffffffffffffffffffff16815260200190815260200160002060006101000a81548173ffffffffffffffffffffffffffffffffffffffff021916908373ffffffffffffffffffffffffffffffffffffffff16021790555084600260008873ffffffffffffffffffffffffffffffffffffffff1673ffffffffffffffffffffffffffffffffffffffff16815260200190815260200160002060008973ffffffffffffffffffffffffffffffffffffffff1673ffffffffffffffffffffffffffffffffffffffff16815260200190815260200160002060006101000a81548173ffffffffffffffffffffffffffffffffffffffff021916908373ffffffffffffffffffffffffffffffffffffffff1602179055506003859080600181540180825580915050600190039060005260206000200160009091909190916101000a81548173ffffffffffffffffffffffffffffffffffffffff021916908373ffffffffffffffffffffffffffffffffffffffff1602179055508573ffffffffffffffffffffffffffffffffffffffff168773ffffffffffffffffffffffffffffffffffffffff167ff188b2a3ea10f9edf4d2bbbb8f5226952f363c56a1aa43f04e79ada6f4501a2e8760038054905060405161078e929190610b69565b60405180910390a35050505092915050565b60008054906101000a900473ffffffffffffffffffffffffffffffffffffffff1673ffffffffffffffffffffffffffffffffffffffff163373ffffffffffffffffffffffffffffffffffffffff161461082e576040517f08c379a000000000000000000000000000000000000000000000000000000000815260040161082590610c04565b60405180910390fd5b80600160006101000a81548173ffffffffffffffffffffffffffffffffffffffff021916908373ffffffffffffffffffffffffffffffffffffffff16021790555050565b611ba280610c2583390190565b600073ffffffffffffffffffffffffffffffffffffffff82169050919050565b60006108aa8261087f565b9050919050565b6108ba8161089f565b82525050565b60006020820190506108d560008301846108b1565b92915050565b600080fd5b6000819050919050565b6108f3816108e0565b81146108fe57600080fd5b50565b600081359050610910816108ea565b92915050565b60006020828403121561092c5761092b6108db565b5b600061093a84828501610901565b91505092915050565b61094c8161089f565b811461095757600080fd5b50565b60008135905061096981610943565b92915050565b60008060408385031215610986576109856108db565b5b60006109948582860161095a565b92505060206109a58582860161095a565b9150509250929050565b6000602082840312156109c5576109c46108db565b5b60006109d38482850161095a565b91505092915050565b600082825260208201905092915050565b7f4445583a204944454e544943414c5f4144445245535345530000000000000000600082015250565b6000610a236018836109dc565b9150610a2e826109ed565b602082019050919050565b60006020820190508181036000830152610a5281610a16565b9050919050565b7f4445583a205a45524f5f41444452455353000000000000000000000000000000600082015250565b6000610a8f6011836109dc565b9150610a9a82610a59565b602082019050919050565b60006020820190508181036000830152610abe81610a82565b9050919050565b7f4445583a20504149525f45584953545300000000000000000000000000000000600082015250565b6000610afb6010836109dc565b9150610b0682610ac5565b602082019050919050565b60006020820190508181036000830152610b2a81610aee565b9050919050565b6000604082019050610b4660008301856108b1565b610b5360208301846108b1565b9392505050565b610b63816108e0565b82525050565b6000604082019050610b7e60008301856108b1565b610b8b6020830184610b5a565b9392505050565b7f4445583a20464f5242494444454e5f544f5f5345545f50524f544f434f4c5f4660008201527f4545530000000000000000000000000000000000000000000000000000000000602082015250565b6000610bee6023836109dc565b9150610bf982610b92565b604082019050919050565b60006020820190508181036000830152610c1d81610be1565b905091905056fe6080604052600160085534801561001557600080fd5b5033600360006101000a81548173ffffffffffffffffffffffffffffffffffffffff021916908373ffffffffffffffffffffffffffffffffffffffff160217905550611b3c806100666000396000f3fe608060405234801561001057600080fd5b506004361061010b5760003560e01c80635f64b55b116100a257806395d89b411161007157806395d89b41146102c0578063963671be146102de578063a9059cbb146102fc578063ba9a7a561461032c578063dd62ed3e1461034a5761010b565b80635f64b55b146102245780636a6278421461024257806370a08231146102725780637464fc3d146102a25761010b565b806318160ddd116100de57806318160ddd1461019c57806323b872dd146101ba578063313ce567146101ea578063485cc955146102085761010b565b806306fdde03146101105780630902f1ac1461012e578063095ea7b31461014e5780630fc63d101461017e575b600080fd5b61011861037a565b604051610125919061138b565b60405180910390f35b610136610396565b604051610145939291906113f5565b60405180910390f35b610168600480360381019061016391906114c5565b6103f3565b6040516101759190611520565b60405180910390f35b61018661040a565b604051610193919061154a565b60405180910390f35b6101a4610430565b6040516101b19190611574565b60405180910390f35b6101d460048036038101906101cf919061158f565b610436565b6040516101e19190611520565b60405180910390f35b6101f26105fa565b6040516101ff91906115fe565b60405180910390f35b610222600480360381019061021d9190611619565b6105ff565b005b61022c610715565b604051610239919061154a565b60405180910390f35b61025c60048036038101906102579190611659565b61073b565b6040516102699190611574565b60405180910390f35b61028c60048036038101906102879190611659565b610aef565b6040516102999190611574565b60405180910390f35b6102aa610b07565b6040516102b79190611574565b60405180910390f35b6102c8610b0d565b6040516102d5919061138b565b60405180910390f35b6102e6610b46565b6040516102f3919061154a565b60405180910390f35b610316600480360381019061031191906114c5565b610b6c565b6040516103239190611520565b60405180910390f35b610334610b83565b6040516103419190611574565b60405180910390f35b610364600480360381019061035f9190611619565b610b89565b6040516103719190611574565b60405180910390f35b604051806060016040528060278152602001611ae06027913981565b6000806000600660009054906101000a90046dffffffffffffffffffffffffffff1692506006600e9054906101000a90046dffffffffffffffffffffffffffff1691506006601c9054906101000a900463ffffffff169050909192565b6000610400338484610bae565b6001905092915050565b600460009054906101000a900473ffffffffffffffffffffffffffffffffffffffff1681565b60005481565b60007fffffffffffffffffffffffffffffffffffffffffffffffffffffffffffffffff600260008673ffffffffffffffffffffffffffffffffffffffff1673ffffffffffffffffffffffffffffffffffffffff16815260200190815260200160002060003373ffffffffffffffffffffffffffffffffffffffff1673ffffffffffffffffffffffffffffffffffffffff16815260200190815260200160002054146105e45781600260008673ffffffffffffffffffffffffffffffffffffffff1673ffffffffffffffffffffffffffffffffffffffff16815260200190815260200160002060003373ffffffffffffffffffffffffffffffffffffffff1673ffffffffffffffffffffffffffffffffffffffff1681526020019081526020016000205461056391906116b5565b600260008673ffffffffffffffffffffffffffffffffffffffff1673ffffffffffffffffffffffffffffffffffffffff16815260200190815260200160002060003373ffffffffffffffffffffffffffffffffffffffff1673ffffffffffffffffffffffffffffffffffffffff168152602001908152602001600020819055505b6105ef848484610c99565b600190509392505050565b601281565b600360009054906101000a900473ffffffffffffffffffffffffffffffffffffffff1673ffffffffffffffffffffffffffffffffffffffff163373ffffffffffffffffffffffffffffffffffffffff161461068f576040517f08c379a000000000000000000000000000000000000000000000000000000000815260040161068690611735565b60405180910390fd5b81600460006101000a81548173ffffffffffffffffffffffffffffffffffffffff021916908373ffffffffffffffffffffffffffffffffffffffff16021790555080600560006101000a81548173ffffffffffffffffffffffffffffffffffffffff021916908373ffffffffffffffffffffffffffffffffffffffff1602179055505050565b600560009054906101000a900473ffffffffffffffffffffffffffffffffffffffff1681565b6000600160085414610782576040517f08c379a0000000000000000000000000000000000000000000000000000000008152600401610779906117a1565b60405180910390fd5b6000600881905550600080610795610396565b50915091506000600460009054906101000a900473ffffffffffffffffffffffffffffffffffffffff1673ffffffffffffffffffffffffffffffffffffffff166370a08231306040518263ffffffff1660e01b81526004016107f7919061154a565b602060405180830381865afa158015610814573d6000803e3d6000fd5b505050506040513d601f19601f8201168201806040525081019061083891906117d6565b90506000600560009054906101000a900473ffffffffffffffffffffffffffffffffffffffff1673ffffffffffffffffffffffffffffffffffffffff166370a08231306040518263ffffffff1660e01b8152600401610897919061154a565b602060405180830381865afa1580156108b4573d6000803e3d6000fd5b505050506040513d601f19601f820116820180604052508101906108d891906117d6565b90506000846dffffffffffffffffffffffffffff16836108f891906116b5565b90506000846dffffffffffffffffffffffffffff168361091891906116b5565b905060006109268787610e1f565b90506000805490506000810361096b576103e861094d84866109489190611803565b610fcb565b61095791906116b5565b985061096660006103e8611045565b6109fc565b6109f9600660009054906101000a90046dffffffffffffffffffffffffffff166dffffffffffffffffffffffffffff1682866109a79190611803565b6109b19190611874565b6006600e9054906101000a90046dffffffffffffffffffffffffffff166dffffffffffffffffffffffffffff1683866109ea9190611803565b6109f49190611874565b611151565b98505b60008911610a3f576040517f08c379a0000000000000000000000000000000000000000000000000000000008152600401610a3690611917565b60405180910390fd5b610a498a8a611045565b610a53868661116a565b8115610a8a57610a83886dffffffffffffffffffffffffffff16886dffffffffffffffffffffffffffff1661127e565b6007819055505b3373ffffffffffffffffffffffffffffffffffffffff167f4c209b5fc8ad50758f13e2e1088ba56a560dff690a1c6fef26394f4c03821c4f8585604051610ad2929190611937565b60405180910390a250505050505050506001600881905550919050565b60016020528060005260406000206000915090505481565b60075481565b6040518060400160405280600481526020017f4d5644450000000000000000000000000000000000000000000000000000000081525081565b600360009054906101000a900473ffffffffffffffffffffffffffffffffffffffff1681565b6000610b79338484610c99565b6001905092915050565b6103e881565b6002602052816000526040600020602052806000526040600020600091509150505481565b80600260008573ffffffffffffffffffffffffffffffffffffffff1673ffffffffffffffffffffffffffffffffffffffff16815260200190815260200160002060008473ffffffffffffffffffffffffffffffffffffffff1673ffffffffffffffffffffffffffffffffffffffff168152602001908152602001600020819055508173ffffffffffffffffffffffffffffffffffffffff168373ffffffffffffffffffffffffffffffffffffffff167f8c5be1e5ebec7d5bd14f71427d1e84f3dd0314c0f7b2291e5b200ac8c7c3b92583604051610c8c9190611574565b60405180910390a3505050565b80600160008573ffffffffffffffffffffffffffffffffffffffff1673ffffffffffffffffffffffffffffffffffffffff16815260200190815260200160002054610ce491906116b5565b600160008573ffffffffffffffffffffffffffffffffffffffff1673ffffffffffffffffffffffffffffffffffffffff1681526020019081526020016000208190555080600160008473ffffffffffffffffffffffffffffffffffffffff1673ffffffffffffffffffffffffffffffffffffffff16815260200190815260200160002054610d729190611960565b600160008473ffffffffffffffffffffffffffffffffffffffff1673ffffffffffffffffffffffffffffffffffffffff168152602001908152602001600020819055508173ffffffffffffffffffffffffffffffffffffffff168373ffffffffffffffffffffffffffffffffffffffff167fddf252ad1be2c89b69c2b068fc378daa952ba7f163c4a11628f55a4df523b3ef83604051610e129190611574565b60405180910390a3505050565b600080600360009054906101000a900473ffffffffffffffffffffffffffffffffffffffff1673ffffffffffffffffffffffffffffffffffffffff1663017e7e586040518163ffffffff1660e01b8152600401602060405180830381865afa158015610e8f573d6000803e3d6000fd5b505050506040513d601f19601f82011682018060405250810190610eb391906119a9565b9050600073ffffffffffffffffffffffffffffffffffffffff168173ffffffffffffffffffffffffffffffffffffffff1614159150600060075490508215610fb15760008114610fac576000610f31610f2c876dffffffffffffffffffffffffffff16876dffffffffffffffffffffffffffff1661127e565b610fcb565b90506000610f3e83610fcb565b905080821115610fa95760008183610f5691906116b5565b600054610f639190611803565b9050600082600585610f759190611803565b610f7f9190611960565b905060008183610f8f9190611874565b90506000811115610fa557610fa48782611045565b5b5050505b50505b610fc3565b60008114610fc25760006007819055505b5b505092915050565b600060038211156110325781905060006001600284610fea9190611874565b610ff49190611960565b90505b8181101561102c5780915060028182856110119190611874565b61101b9190611960565b6110259190611874565b9050610ff7565b50611040565b6000821461103f57600190505b5b919050565b806000546110539190611960565b60008190555080600160008473ffffffffffffffffffffffffffffffffffffffff1673ffffffffffffffffffffffffffffffffffffffff168152602001908152602001600020546110a49190611960565b600160008473ffffffffffffffffffffffffffffffffffffffff1673ffffffffffffffffffffffffffffffffffffffff168152602001908152602001600020819055508173ffffffffffffffffffffffffffffffffffffffff16600073ffffffffffffffffffffffffffffffffffffffff167fddf252ad1be2c89b69c2b068fc378daa952ba7f163c4a11628f55a4df523b3ef836040516111459190611574565b60405180910390a35050565b60008183106111605781611162565b825b905092915050565b6dffffffffffffffffffffffffffff8016821115801561119a57506dffffffffffffffffffffffffffff80168111155b6111d9576040517f08c379a00000000000000000000000000000000000000000000000000000000081526004016111d090611a22565b60405180910390fd5b81600660006101000a8154816dffffffffffffffffffffffffffff02191690836dffffffffffffffffffffffffffff160217905550806006600e6101000a8154816dffffffffffffffffffffffffffff02191690836dffffffffffffffffffffffffffff1602179055506000640100000000426112569190611a42565b9050806006601c6101000a81548163ffffffff021916908363ffffffff160217905550505050565b600081830290507fffffffffffffffffffffffffffffffffffffffffffffffffffffffffffffffff81111580156112b6575060008110155b6112f5576040517f08c379a00000000000000000000000000000000000000000000000000000000081526004016112ec90611abf565b60405180910390fd5b92915050565b600081519050919050565b600082825260208201905092915050565b60005b8381101561133557808201518184015260208101905061131a565b60008484015250505050565b6000601f19601f8301169050919050565b600061135d826112fb565b6113678185611306565b9350611377818560208601611317565b61138081611341565b840191505092915050565b600060208201905081810360008301526113a58184611352565b905092915050565b60006dffffffffffffffffffffffffffff82169050919050565b6113d0816113ad565b82525050565b600063ffffffff82169050919050565b6113ef816113d6565b82525050565b600060608201905061140a60008301866113c7565b61141760208301856113c7565b61142460408301846113e6565b949350505050565b600080fd5b600073ffffffffffffffffffffffffffffffffffffffff82169050919050565b600061145c82611431565b9050919050565b61146c81611451565b811461147757600080fd5b50565b60008135905061148981611463565b92915050565b6000819050919050565b6114a28161148f565b81146114ad57600080fd5b50565b6000813590506114bf81611499565b92915050565b600080604083850312156114dc576114db61142c565b5b60006114ea8582860161147a565b92505060206114fb858286016114b0565b9150509250929050565b60008115159050919050565b61151a81611505565b82525050565b60006020820190506115356000830184611511565b92915050565b61154481611451565b82525050565b600060208201905061155f600083018461153b565b92915050565b61156e8161148f565b82525050565b60006020820190506115896000830184611565565b92915050565b6000806000606084860312156115a8576115a761142c565b5b60006115b68682870161147a565b93505060206115c78682870161147a565b92505060406115d8868287016114b0565b9150509250925092565b600060ff82169050919050565b6115f8816115e2565b82525050565b600060208201905061161360008301846115ef565b92915050565b600080604083850312156116305761162f61142c565b5b600061163e8582860161147a565b925050602061164f8582860161147a565b9150509250929050565b60006020828403121561166f5761166e61142c565b5b600061167d8482850161147a565b91505092915050565b7f4e487b7100000000000000000000000000000000000000000000000000000000600052601160045260246000fd5b60006116c08261148f565b91506116cb8361148f565b92508282039050818111156116e3576116e2611686565b5b92915050565b7f4445583a20464f5242494444454e000000000000000000000000000000000000600082015250565b600061171f600e83611306565b915061172a826116e9565b602082019050919050565b6000602082019050818103600083015261174e81611712565b9050919050565b7f4445583a204c4f434b4544000000000000000000000000000000000000000000600082015250565b600061178b600b83611306565b915061179682611755565b602082019050919050565b600060208201905081810360008301526117ba8161177e565b9050919050565b6000815190506117d081611499565b92915050565b6000602082840312156117ec576117eb61142c565b5b60006117fa848285016117c1565b91505092915050565b600061180e8261148f565b91506118198361148f565b92508282026118278161148f565b9150828204841483151761183e5761183d611686565b5b5092915050565b7f4e487b7100000000000000000000000000000000000000000000000000000000600052601260045260246000fd5b600061187f8261148f565b915061188a8361148f565b92508261189a57611899611845565b5b828204905092915050565b7f4445583a20494e53554646494349454e545f4c49515549444954595f4d494e5460008201527f4544000000000000000000000000000000000000000000000000000000000000602082015250565b6000611901602283611306565b915061190c826118a5565b604082019050919050565b60006020820190508181036000830152611930816118f4565b9050919050565b600060408201905061194c6000830185611565565b6119596020830184611565565b9392505050565b600061196b8261148f565b91506119768361148f565b925082820190508082111561198e5761198d611686565b5b92915050565b6000815190506119a381611463565b92915050565b6000602082840312156119bf576119be61142c565b5b60006119cd84828501611994565b91505092915050565b7f4445583a204f564552464c4f5700000000000000000000000000000000000000600082015250565b6000611a0c600d83611306565b9150611a17826119d6565b602082019050919050565b60006020820190508181036000830152611a3b816119ff565b9050919050565b6000611a4d8261148f565b9150611a588361148f565b925082611a6857611a67611845565b5b828206905092915050565b7f6f766572666c6f772f756e646572666c6f770000000000000000000000000000600082015250565b6000611aa9601283611306565b9150611ab482611a73565b602082019050919050565b60006020820190508181036000830152611ad881611a9c565b905091905056fe4d696e696d616c6c7920566961626c6520446563656e7472616c697a65642045786368616e6765a26469706673582212200480a5f9d46f5321c7164d726495830affd9406b77b98ac21244e4be6dd071e064736f6c63430008110033a2646970667358221220122e36d64c3a9a0daf617f5f4d5de9036f21d202938165202b1ca056ad16eee264736f6c63430008110033",
  "linkReferences": {},
  "deployedLinkReferences": {}
}