{
  "_format": "hh-sol-artifact-1",
  "contractName": "Factory",
  "sourceName": "contracts/core/Factory.sol",
  "abi": [
    {
      "inputs": [
        {
          "internalType": "address",
          "name": "_feeToSetter",
          "type": "address"
        }
      ],
      "stateMutability": "nonpayable",
      "type": "constructor"
    },
    {
      "anonymous": false,
      "inputs": [
        {
          "indexed": true,
          "internalType": "address",
          "name": "token0",
          "type": "address"
        },
        {
          "indexed": true,
          "internalType": "address",
          "name": "token1",
          "type": "address"
        },
        {
          "indexed": false,
          "internalType": "address",
          "name": "pair",
          "type": "address"
        },
        {
          "indexed": false,
          "internalType": "uint256",
          "name": "",
          "type": "uint256"
        }
      ],
      "name": "TradingPairCreated",
      "type": "event"
    },
    {
      "inputs": [
        {
          "internalType": "uint256",
          "name": "",
          "type": "uint256"
        }
      ],
      "name": "allTradingPairs",
      "outputs": [
        {
          "internalType": "address",
          "name": "",
          "type": "address"
        }
      ],
      "stateMutability": "view",
      "type": "function"
    },
    {
      "inputs": [
        {
          "internalType": "address",
          "name": "tokenA",
          "type": "address"
        },
        {
          "internalType": "address",
          "name": "tokenB",
          "type": "address"
        }
      ],
      "name": "createTradingPair",
      "outputs": [
        {
          "internalType": "address",
          "name": "pair",
          "type": "address"
        }
      ],
      "stateMutability": "nonpayable",
      "type": "function"
    },
    {
      "inputs": [],
      "name": "feeToSetter",
      "outputs": [
        {
          "internalType": "address",
          "name": "",
          "type": "address"
        }
      ],
      "stateMutability": "view",
      "type": "function"
    },
    {
      "inputs": [
        {
          "internalType": "address",
          "name": "",
          "type": "address"
        },
        {
          "internalType": "address",
          "name": "",
          "type": "address"
        }
      ],
      "name": "getTradingPair",
      "outputs": [
        {
          "internalType": "address",
          "name": "",
          "type": "address"
        }
      ],
      "stateMutability": "view",
      "type": "function"
    }
  ],
  "bytecode": "0x608060405234801561001057600080fd5b506040516115f43803806115f4833981810160405281019061003291906100db565b806000806101000a81548173ffffffffffffffffffffffffffffffffffffffff021916908373ffffffffffffffffffffffffffffffffffffffff16021790555050610108565b600080fd5b600073ffffffffffffffffffffffffffffffffffffffff82169050919050565b60006100a88261007d565b9050919050565b6100b88161009d565b81146100c357600080fd5b50565b6000815190506100d5816100af565b92915050565b6000602082840312156100f1576100f0610078565b5b60006100ff848285016100c6565b91505092915050565b6114dd806101176000396000f3fe608060405234801561001057600080fd5b506004361061004c5760003560e01c8063094b741514610051578063b6df9a411461006f578063b7faf78d1461009f578063c729dfcf146100cf575b600080fd5b6100596100ff565b6040516100669190610778565b60405180910390f35b610089600480360381019061008491906107ce565b610123565b6040516100969190610778565b60405180910390f35b6100b960048036038101906100b49190610827565b610162565b6040516100c69190610778565b60405180910390f35b6100e960048036038101906100e49190610827565b6101a4565b6040516100f69190610778565b60405180910390f35b60008054906101000a900473ffffffffffffffffffffffffffffffffffffffff1681565b6002818154811061013357600080fd5b906000526020600020016000915054906101000a900473ffffffffffffffffffffffffffffffffffffffff1681565b60016020528160005260406000206020528060005260406000206000915091509054906101000a900473ffffffffffffffffffffffffffffffffffffffff1681565b60008173ffffffffffffffffffffffffffffffffffffffff168373ffffffffffffffffffffffffffffffffffffffff1603610214576040517f08c379a000000000000000000000000000000000000000000000000000000000815260040161020b906108c4565b60405180910390fd5b6000808373ffffffffffffffffffffffffffffffffffffffff168573ffffffffffffffffffffffffffffffffffffffff1610610251578385610254565b84845b91509150600073ffffffffffffffffffffffffffffffffffffffff168573ffffffffffffffffffffffffffffffffffffffff16141580156102c25750600073ffffffffffffffffffffffffffffffffffffffff168473ffffffffffffffffffffffffffffffffffffffff1614155b610301576040517f08c379a00000000000000000000000000000000000000000000000000000000081526004016102f890610930565b60405180910390fd5b600073ffffffffffffffffffffffffffffffffffffffff16600160008473ffffffffffffffffffffffffffffffffffffffff1673ffffffffffffffffffffffffffffffffffffffff16815260200190815260200160002060008373ffffffffffffffffffffffffffffffffffffffff1673ffffffffffffffffffffffffffffffffffffffff16815260200190815260200160002060009054906101000a900473ffffffffffffffffffffffffffffffffffffffff1673ffffffffffffffffffffffffffffffffffffffff161461040c576040517f08c379a00000000000000000000000000000000000000000000000000000000081526004016104039061099c565b60405180910390fd5b600082826040516020016104219291906109bc565b6040516020818303038152906040528051906020012090506000816040516104489061072a565b8190604051809103906000f5905080158015610468573d6000803e3d6000fd5b5090508094508473ffffffffffffffffffffffffffffffffffffffff1663485cc95585856040518363ffffffff1660e01b81526004016104a99291906109bc565b600060405180830381600087803b1580156104c357600080fd5b505af11580156104d7573d6000803e3d6000fd5b5050505084600160008973ffffffffffffffffffffffffffffffffffffffff1673ffffffffffffffffffffffffffffffffffffffff16815260200190815260200160002060008873ffffffffffffffffffffffffffffffffffffffff1673ffffffffffffffffffffffffffffffffffffffff16815260200190815260200160002060006101000a81548173ffffffffffffffffffffffffffffffffffffffff021916908373ffffffffffffffffffffffffffffffffffffffff16021790555084600160008873ffffffffffffffffffffffffffffffffffffffff1673ffffffffffffffffffffffffffffffffffffffff16815260200190815260200160002060008973ffffffffffffffffffffffffffffffffffffffff1673ffffffffffffffffffffffffffffffffffffffff16815260200190815260200160002060006101000a81548173ffffffffffffffffffffffffffffffffffffffff021916908373ffffffffffffffffffffffffffffffffffffffff1602179055506002859080600181540180825580915050600190039060005260206000200160009091909190916101000a81548173ffffffffffffffffffffffffffffffffffffffff021916908373ffffffffffffffffffffffffffffffffffffffff1602179055508573ffffffffffffffffffffffffffffffffffffffff168773ffffffffffffffffffffffffffffffffffffffff167ff188b2a3ea10f9edf4d2bbbb8f5226952f363c56a1aa43f04e79ada6f4501a2e876002805490506040516107189291906109f4565b60405180910390a35050505092915050565b610a8a80610a1e83390190565b600073ffffffffffffffffffffffffffffffffffffffff82169050919050565b600061076282610737565b9050919050565b61077281610757565b82525050565b600060208201905061078d6000830184610769565b92915050565b600080fd5b6000819050919050565b6107ab81610798565b81146107b657600080fd5b50565b6000813590506107c8816107a2565b92915050565b6000602082840312156107e4576107e3610793565b5b60006107f2848285016107b9565b91505092915050565b61080481610757565b811461080f57600080fd5b50565b600081359050610821816107fb565b92915050565b6000806040838503121561083e5761083d610793565b5b600061084c85828601610812565b925050602061085d85828601610812565b9150509250929050565b600082825260208201905092915050565b7f4445583a204944454e544943414c5f4144445245535345530000000000000000600082015250565b60006108ae601883610867565b91506108b982610878565b602082019050919050565b600060208201905081810360008301526108dd816108a1565b9050919050565b7f4445583a205a45524f5f41444452455353000000000000000000000000000000600082015250565b600061091a601183610867565b9150610925826108e4565b602082019050919050565b600060208201905081810360008301526109498161090d565b9050919050565b7f4445583a20504149525f45584953545300000000000000000000000000000000600082015250565b6000610986601083610867565b915061099182610950565b602082019050919050565b600060208201905081810360008301526109b581610979565b9050919050565b60006040820190506109d16000830185610769565b6109de6020830184610769565b9392505050565b6109ee81610798565b82525050565b6000604082019050610a096000830185610769565b610a1660208301846109e5565b939250505056fe608060405234801561001057600080fd5b50336000806101000a81548173ffffffffffffffffffffffffffffffffffffffff021916908373ffffffffffffffffffffffffffffffffffffffff160217905550610a2a806100606000396000f3fe608060405234801561001057600080fd5b50600436106100625760003560e01c80630902f1ac146100675780630fc63d1014610087578063485cc955146100a55780635f64b55b146100c15780636a627842146100df578063963671be1461010f575b600080fd5b61006f61012d565b60405161007e93929190610661565b60405180910390f35b61008f61018a565b60405161009c91906106d9565b60405180910390f35b6100bf60048036038101906100ba9190610725565b6101b0565b005b6100c96102c4565b6040516100d691906106d9565b60405180910390f35b6100f960048036038101906100f49190610765565b6102ea565b60405161010691906107ab565b60405180910390f35b6101176104e1565b60405161012491906106d9565b60405180910390f35b6000806000600360009054906101000a90046dffffffffffffffffffffffffffff1692506003600e9054906101000a90046dffffffffffffffffffffffffffff1691506003601c9054906101000a900463ffffffff169050909192565b600160009054906101000a900473ffffffffffffffffffffffffffffffffffffffff1681565b60008054906101000a900473ffffffffffffffffffffffffffffffffffffffff1673ffffffffffffffffffffffffffffffffffffffff163373ffffffffffffffffffffffffffffffffffffffff161461023e576040517f08c379a000000000000000000000000000000000000000000000000000000000815260040161023590610823565b60405180910390fd5b81600160006101000a81548173ffffffffffffffffffffffffffffffffffffffff021916908373ffffffffffffffffffffffffffffffffffffffff16021790555080600260006101000a81548173ffffffffffffffffffffffffffffffffffffffff021916908373ffffffffffffffffffffffffffffffffffffffff1602179055505050565b600260009054906101000a900473ffffffffffffffffffffffffffffffffffffffff1681565b60008060006102f761012d565b50915091506000600160009054906101000a900473ffffffffffffffffffffffffffffffffffffffff1673ffffffffffffffffffffffffffffffffffffffff166370a08231306040518263ffffffff1660e01b815260040161035991906106d9565b602060405180830381865afa158015610376573d6000803e3d6000fd5b505050506040513d601f19601f8201168201806040525081019061039a919061086f565b90506000600260009054906101000a900473ffffffffffffffffffffffffffffffffffffffff1673ffffffffffffffffffffffffffffffffffffffff166370a08231306040518263ffffffff1660e01b81526004016103f991906106d9565b602060405180830381865afa158015610416573d6000803e3d6000fd5b505050506040513d601f19601f8201168201806040525081019061043a919061086f565b90506000846dffffffffffffffffffffffffffff168361045a91906108cb565b90506000846dffffffffffffffffffffffffffff168361047a91906108cb565b90506104868484610505565b3373ffffffffffffffffffffffffffffffffffffffff167f4c209b5fc8ad50758f13e2e1088ba56a560dff690a1c6fef26394f4c03821c4f83836040516104ce9291906108ff565b60405180910390a2505050505050919050565b60008054906101000a900473ffffffffffffffffffffffffffffffffffffffff1681565b6dffffffffffffffffffffffffffff8016821115801561053557506dffffffffffffffffffffffffffff80168111155b610574576040517f08c379a000000000000000000000000000000000000000000000000000000000815260040161056b90610974565b60405180910390fd5b81600360006101000a8154816dffffffffffffffffffffffffffff02191690836dffffffffffffffffffffffffffff160217905550806003600e6101000a8154816dffffffffffffffffffffffffffff02191690836dffffffffffffffffffffffffffff1602179055506000640100000000426105f191906109c3565b9050806003601c6101000a81548163ffffffff021916908363ffffffff160217905550505050565b60006dffffffffffffffffffffffffffff82169050919050565b61063c81610619565b82525050565b600063ffffffff82169050919050565b61065b81610642565b82525050565b60006060820190506106766000830186610633565b6106836020830185610633565b6106906040830184610652565b949350505050565b600073ffffffffffffffffffffffffffffffffffffffff82169050919050565b60006106c382610698565b9050919050565b6106d3816106b8565b82525050565b60006020820190506106ee60008301846106ca565b92915050565b600080fd5b610702816106b8565b811461070d57600080fd5b50565b60008135905061071f816106f9565b92915050565b6000806040838503121561073c5761073b6106f4565b5b600061074a85828601610710565b925050602061075b85828601610710565b9150509250929050565b60006020828403121561077b5761077a6106f4565b5b600061078984828501610710565b91505092915050565b6000819050919050565b6107a581610792565b82525050565b60006020820190506107c0600083018461079c565b92915050565b600082825260208201905092915050565b7f4445583a20464f5242494444454e000000000000000000000000000000000000600082015250565b600061080d600e836107c6565b9150610818826107d7565b602082019050919050565b6000602082019050818103600083015261083c81610800565b9050919050565b61084c81610792565b811461085757600080fd5b50565b60008151905061086981610843565b92915050565b600060208284031215610885576108846106f4565b5b60006108938482850161085a565b91505092915050565b7f4e487b7100000000000000000000000000000000000000000000000000000000600052601160045260246000fd5b60006108d682610792565b91506108e183610792565b92508282039050818111156108f9576108f861089c565b5b92915050565b6000604082019050610914600083018561079c565b610921602083018461079c565b9392505050565b7f4445583a204f564552464c4f5700000000000000000000000000000000000000600082015250565b600061095e600d836107c6565b915061096982610928565b602082019050919050565b6000602082019050818103600083015261098d81610951565b9050919050565b7f4e487b7100000000000000000000000000000000000000000000000000000000600052601260045260246000fd5b60006109ce82610792565b91506109d983610792565b9250826109e9576109e8610994565b5b82820690509291505056fea2646970667358221220c2930b03aa8fff21b5a7ea4e264757feb234987b9ca8cb48482ea933fa11b59a64736f6c63430008110033a2646970667358221220863c20750cf0201237759fd46a92c1c31ec78131e28a07c1e8ef014a2cf0be1864736f6c63430008110033",
  "linkReferences": {},
  "deployedLinkReferences": {}
}