{
  "_format": "hh-sol-artifact-1",
  "contractName": "Factory",
  "sourceName": "contracts/core/Factory.sol",
  "abi": [
    {
      "inputs": [
        {
          "internalType": "address",
          "name": "_feeToSetter",
          "type": "address"
        }
      ],
      "stateMutability": "nonpayable",
      "type": "constructor"
    },
    {
      "anonymous": false,
      "inputs": [
        {
          "indexed": true,
          "internalType": "address",
          "name": "token0",
          "type": "address"
        },
        {
          "indexed": true,
          "internalType": "address",
          "name": "token1",
          "type": "address"
        },
        {
          "indexed": false,
          "internalType": "address",
          "name": "pair",
          "type": "address"
        },
        {
          "indexed": false,
          "internalType": "uint256",
          "name": "",
          "type": "uint256"
        }
      ],
      "name": "TradingPairCreated",
      "type": "event"
    },
    {
      "inputs": [
        {
          "internalType": "uint256",
          "name": "",
          "type": "uint256"
        }
      ],
      "name": "allTradingPairs",
      "outputs": [
        {
          "internalType": "address",
          "name": "",
          "type": "address"
        }
      ],
      "stateMutability": "view",
      "type": "function"
    },
    {
      "inputs": [
        {
          "internalType": "address",
          "name": "tokenA",
          "type": "address"
        },
        {
          "internalType": "address",
          "name": "tokenB",
          "type": "address"
        }
      ],
      "name": "createTradingPair",
      "outputs": [
        {
          "internalType": "address",
          "name": "pair",
          "type": "address"
        }
      ],
      "stateMutability": "nonpayable",
      "type": "function"
    },
    {
      "inputs": [],
      "name": "feeToSetter",
      "outputs": [
        {
          "internalType": "address",
          "name": "",
          "type": "address"
        }
      ],
      "stateMutability": "view",
      "type": "function"
    },
    {
      "inputs": [
        {
          "internalType": "address",
          "name": "",
          "type": "address"
        },
        {
          "internalType": "address",
          "name": "",
          "type": "address"
        }
      ],
      "name": "getTradingPair",
      "outputs": [
        {
          "internalType": "address",
          "name": "",
          "type": "address"
        }
      ],
      "stateMutability": "view",
      "type": "function"
    }
  ],
  "bytecode": "0x608060405234801561001057600080fd5b506040516122fa3803806122fa833981810160405281019061003291906100db565b806000806101000a81548173ffffffffffffffffffffffffffffffffffffffff021916908373ffffffffffffffffffffffffffffffffffffffff16021790555050610108565b600080fd5b600073ffffffffffffffffffffffffffffffffffffffff82169050919050565b60006100a88261007d565b9050919050565b6100b88161009d565b81146100c357600080fd5b50565b6000815190506100d5816100af565b92915050565b6000602082840312156100f1576100f0610078565b5b60006100ff848285016100c6565b91505092915050565b6121e3806101176000396000f3fe608060405234801561001057600080fd5b506004361061004c5760003560e01c8063094b741514610051578063b6df9a411461006f578063b7faf78d1461009f578063c729dfcf146100cf575b600080fd5b6100596100ff565b6040516100669190610778565b60405180910390f35b610089600480360381019061008491906107ce565b610123565b6040516100969190610778565b60405180910390f35b6100b960048036038101906100b49190610827565b610162565b6040516100c69190610778565b60405180910390f35b6100e960048036038101906100e49190610827565b6101a4565b6040516100f69190610778565b60405180910390f35b60008054906101000a900473ffffffffffffffffffffffffffffffffffffffff1681565b6002818154811061013357600080fd5b906000526020600020016000915054906101000a900473ffffffffffffffffffffffffffffffffffffffff1681565b60016020528160005260406000206020528060005260406000206000915091509054906101000a900473ffffffffffffffffffffffffffffffffffffffff1681565b60008173ffffffffffffffffffffffffffffffffffffffff168373ffffffffffffffffffffffffffffffffffffffff1603610214576040517f08c379a000000000000000000000000000000000000000000000000000000000815260040161020b906108c4565b60405180910390fd5b6000808373ffffffffffffffffffffffffffffffffffffffff168573ffffffffffffffffffffffffffffffffffffffff1610610251578385610254565b84845b91509150600073ffffffffffffffffffffffffffffffffffffffff168573ffffffffffffffffffffffffffffffffffffffff16141580156102c25750600073ffffffffffffffffffffffffffffffffffffffff168473ffffffffffffffffffffffffffffffffffffffff1614155b610301576040517f08c379a00000000000000000000000000000000000000000000000000000000081526004016102f890610930565b60405180910390fd5b600073ffffffffffffffffffffffffffffffffffffffff16600160008473ffffffffffffffffffffffffffffffffffffffff1673ffffffffffffffffffffffffffffffffffffffff16815260200190815260200160002060008373ffffffffffffffffffffffffffffffffffffffff1673ffffffffffffffffffffffffffffffffffffffff16815260200190815260200160002060009054906101000a900473ffffffffffffffffffffffffffffffffffffffff1673ffffffffffffffffffffffffffffffffffffffff161461040c576040517f08c379a00000000000000000000000000000000000000000000000000000000081526004016104039061099c565b60405180910390fd5b600082826040516020016104219291906109bc565b6040516020818303038152906040528051906020012090506000816040516104489061072a565b8190604051809103906000f5905080158015610468573d6000803e3d6000fd5b5090508094508473ffffffffffffffffffffffffffffffffffffffff1663485cc95585856040518363ffffffff1660e01b81526004016104a99291906109bc565b600060405180830381600087803b1580156104c357600080fd5b505af11580156104d7573d6000803e3d6000fd5b5050505084600160008973ffffffffffffffffffffffffffffffffffffffff1673ffffffffffffffffffffffffffffffffffffffff16815260200190815260200160002060008873ffffffffffffffffffffffffffffffffffffffff1673ffffffffffffffffffffffffffffffffffffffff16815260200190815260200160002060006101000a81548173ffffffffffffffffffffffffffffffffffffffff021916908373ffffffffffffffffffffffffffffffffffffffff16021790555084600160008873ffffffffffffffffffffffffffffffffffffffff1673ffffffffffffffffffffffffffffffffffffffff16815260200190815260200160002060008973ffffffffffffffffffffffffffffffffffffffff1673ffffffffffffffffffffffffffffffffffffffff16815260200190815260200160002060006101000a81548173ffffffffffffffffffffffffffffffffffffffff021916908373ffffffffffffffffffffffffffffffffffffffff1602179055506002859080600181540180825580915050600190039060005260206000200160009091909190916101000a81548173ffffffffffffffffffffffffffffffffffffffff021916908373ffffffffffffffffffffffffffffffffffffffff1602179055508573ffffffffffffffffffffffffffffffffffffffff168773ffffffffffffffffffffffffffffffffffffffff167ff188b2a3ea10f9edf4d2bbbb8f5226952f363c56a1aa43f04e79ada6f4501a2e876002805490506040516107189291906109f4565b60405180910390a35050505092915050565b61179080610a1e83390190565b600073ffffffffffffffffffffffffffffffffffffffff82169050919050565b600061076282610737565b9050919050565b61077281610757565b82525050565b600060208201905061078d6000830184610769565b92915050565b600080fd5b6000819050919050565b6107ab81610798565b81146107b657600080fd5b50565b6000813590506107c8816107a2565b92915050565b6000602082840312156107e4576107e3610793565b5b60006107f2848285016107b9565b91505092915050565b61080481610757565b811461080f57600080fd5b50565b600081359050610821816107fb565b92915050565b6000806040838503121561083e5761083d610793565b5b600061084c85828601610812565b925050602061085d85828601610812565b9150509250929050565b600082825260208201905092915050565b7f4445583a204944454e544943414c5f4144445245535345530000000000000000600082015250565b60006108ae601883610867565b91506108b982610878565b602082019050919050565b600060208201905081810360008301526108dd816108a1565b9050919050565b7f4445583a205a45524f5f41444452455353000000000000000000000000000000600082015250565b600061091a601183610867565b9150610925826108e4565b602082019050919050565b600060208201905081810360008301526109498161090d565b9050919050565b7f4445583a20504149525f45584953545300000000000000000000000000000000600082015250565b6000610986601083610867565b915061099182610950565b602082019050919050565b600060208201905081810360008301526109b581610979565b9050919050565b60006040820190506109d16000830185610769565b6109de6020830184610769565b9392505050565b6109ee81610798565b82525050565b6000604082019050610a096000830185610769565b610a1660208301846109e5565b939250505056fe608060405234801561001057600080fd5b5033600360006101000a81548173ffffffffffffffffffffffffffffffffffffffff021916908373ffffffffffffffffffffffffffffffffffffffff16021790555061172f806100616000396000f3fe608060405234801561001057600080fd5b50600436106101005760003560e01c80635f64b55b11610097578063963671be11610066578063963671be146102b5578063a9059cbb146102d3578063ba9a7a5614610303578063dd62ed3e1461032157610100565b80635f64b55b146102195780636a6278421461023757806370a082311461026757806395d89b411461029757610100565b806318160ddd116100d357806318160ddd1461019157806323b872dd146101af578063313ce567146101df578063485cc955146101fd57610100565b806306fdde03146101055780630902f1ac14610123578063095ea7b3146101435780630fc63d1014610173575b600080fd5b61010d610351565b60405161011a9190611098565b60405180910390f35b61012b61036d565b60405161013a93929190611102565b60405180910390f35b61015d600480360381019061015891906111d2565b6103ca565b60405161016a919061122d565b60405180910390f35b61017b6103e1565b6040516101889190611257565b60405180910390f35b610199610407565b6040516101a69190611281565b60405180910390f35b6101c960048036038101906101c4919061129c565b61040d565b6040516101d6919061122d565b60405180910390f35b6101e76105d1565b6040516101f4919061130b565b60405180910390f35b61021760048036038101906102129190611326565b6105d6565b005b6102216106ec565b60405161022e9190611257565b60405180910390f35b610251600480360381019061024c9190611366565b610712565b60405161025e9190611281565b60405180910390f35b610281600480360381019061027c9190611366565b610a2b565b60405161028e9190611281565b60405180910390f35b61029f610a43565b6040516102ac9190611098565b60405180910390f35b6102bd610a7c565b6040516102ca9190611257565b60405180910390f35b6102ed60048036038101906102e891906111d2565b610aa2565b6040516102fa919061122d565b60405180910390f35b61030b610ab9565b6040516103189190611281565b60405180910390f35b61033b60048036038101906103369190611326565b610abf565b6040516103489190611281565b60405180910390f35b6040518060600160405280602781526020016116d36027913981565b6000806000600660009054906101000a90046dffffffffffffffffffffffffffff1692506006600e9054906101000a90046dffffffffffffffffffffffffffff1691506006601c9054906101000a900463ffffffff169050909192565b60006103d7338484610ae4565b6001905092915050565b600460009054906101000a900473ffffffffffffffffffffffffffffffffffffffff1681565b60005481565b60007fffffffffffffffffffffffffffffffffffffffffffffffffffffffffffffffff600260008673ffffffffffffffffffffffffffffffffffffffff1673ffffffffffffffffffffffffffffffffffffffff16815260200190815260200160002060003373ffffffffffffffffffffffffffffffffffffffff1673ffffffffffffffffffffffffffffffffffffffff16815260200190815260200160002054146105bb5781600260008673ffffffffffffffffffffffffffffffffffffffff1673ffffffffffffffffffffffffffffffffffffffff16815260200190815260200160002060003373ffffffffffffffffffffffffffffffffffffffff1673ffffffffffffffffffffffffffffffffffffffff1681526020019081526020016000205461053a91906113c2565b600260008673ffffffffffffffffffffffffffffffffffffffff1673ffffffffffffffffffffffffffffffffffffffff16815260200190815260200160002060003373ffffffffffffffffffffffffffffffffffffffff1673ffffffffffffffffffffffffffffffffffffffff168152602001908152602001600020819055505b6105c6848484610bcf565b600190509392505050565b601281565b600360009054906101000a900473ffffffffffffffffffffffffffffffffffffffff1673ffffffffffffffffffffffffffffffffffffffff163373ffffffffffffffffffffffffffffffffffffffff1614610666576040517f08c379a000000000000000000000000000000000000000000000000000000000815260040161065d90611442565b60405180910390fd5b81600460006101000a81548173ffffffffffffffffffffffffffffffffffffffff021916908373ffffffffffffffffffffffffffffffffffffffff16021790555080600560006101000a81548173ffffffffffffffffffffffffffffffffffffffff021916908373ffffffffffffffffffffffffffffffffffffffff1602179055505050565b600560009054906101000a900473ffffffffffffffffffffffffffffffffffffffff1681565b600080600061071f61036d565b50915091506000600460009054906101000a900473ffffffffffffffffffffffffffffffffffffffff1673ffffffffffffffffffffffffffffffffffffffff166370a08231306040518263ffffffff1660e01b81526004016107819190611257565b602060405180830381865afa15801561079e573d6000803e3d6000fd5b505050506040513d601f19601f820116820180604052508101906107c29190611477565b90506000600560009054906101000a900473ffffffffffffffffffffffffffffffffffffffff1673ffffffffffffffffffffffffffffffffffffffff166370a08231306040518263ffffffff1660e01b81526004016108219190611257565b602060405180830381865afa15801561083e573d6000803e3d6000fd5b505050506040513d601f19601f820116820180604052508101906108629190611477565b90506000846dffffffffffffffffffffffffffff168361088291906113c2565b90506000846dffffffffffffffffffffffffffff16836108a291906113c2565b9050600080549050600081036108e7576103e86108c983856108c491906114a4565b610d55565b6108d391906113c2565b97506108e260006103e8610dcf565b610978565b610975600660009054906101000a90046dffffffffffffffffffffffffffff166dffffffffffffffffffffffffffff16828561092391906114a4565b61092d9190611515565b6006600e9054906101000a90046dffffffffffffffffffffffffffff166dffffffffffffffffffffffffffff16838561096691906114a4565b6109709190611515565b610edb565b97505b600088116109bb576040517f08c379a00000000000000000000000000000000000000000000000000000000081526004016109b2906115b8565b60405180910390fd5b6109c58989610dcf565b6109cf8585610ef4565b3373ffffffffffffffffffffffffffffffffffffffff167f4c209b5fc8ad50758f13e2e1088ba56a560dff690a1c6fef26394f4c03821c4f8484604051610a179291906115d8565b60405180910390a250505050505050919050565b60016020528060005260406000206000915090505481565b6040518060400160405280600481526020017f4d5644450000000000000000000000000000000000000000000000000000000081525081565b600360009054906101000a900473ffffffffffffffffffffffffffffffffffffffff1681565b6000610aaf338484610bcf565b6001905092915050565b6103e881565b6002602052816000526040600020602052806000526040600020600091509150505481565b80600260008573ffffffffffffffffffffffffffffffffffffffff1673ffffffffffffffffffffffffffffffffffffffff16815260200190815260200160002060008473ffffffffffffffffffffffffffffffffffffffff1673ffffffffffffffffffffffffffffffffffffffff168152602001908152602001600020819055508173ffffffffffffffffffffffffffffffffffffffff168373ffffffffffffffffffffffffffffffffffffffff167f8c5be1e5ebec7d5bd14f71427d1e84f3dd0314c0f7b2291e5b200ac8c7c3b92583604051610bc29190611281565b60405180910390a3505050565b80600160008573ffffffffffffffffffffffffffffffffffffffff1673ffffffffffffffffffffffffffffffffffffffff16815260200190815260200160002054610c1a91906113c2565b600160008573ffffffffffffffffffffffffffffffffffffffff1673ffffffffffffffffffffffffffffffffffffffff1681526020019081526020016000208190555080600160008473ffffffffffffffffffffffffffffffffffffffff1673ffffffffffffffffffffffffffffffffffffffff16815260200190815260200160002054610ca89190611601565b600160008473ffffffffffffffffffffffffffffffffffffffff1673ffffffffffffffffffffffffffffffffffffffff168152602001908152602001600020819055508173ffffffffffffffffffffffffffffffffffffffff168373ffffffffffffffffffffffffffffffffffffffff167fddf252ad1be2c89b69c2b068fc378daa952ba7f163c4a11628f55a4df523b3ef83604051610d489190611281565b60405180910390a3505050565b60006003821115610dbc5781905060006001600284610d749190611515565b610d7e9190611601565b90505b81811015610db6578091506002818285610d9b9190611515565b610da59190611601565b610daf9190611515565b9050610d81565b50610dca565b60008214610dc957600190505b5b919050565b80600054610ddd9190611601565b60008190555080600160008473ffffffffffffffffffffffffffffffffffffffff1673ffffffffffffffffffffffffffffffffffffffff16815260200190815260200160002054610e2e9190611601565b600160008473ffffffffffffffffffffffffffffffffffffffff1673ffffffffffffffffffffffffffffffffffffffff168152602001908152602001600020819055508173ffffffffffffffffffffffffffffffffffffffff16600073ffffffffffffffffffffffffffffffffffffffff167fddf252ad1be2c89b69c2b068fc378daa952ba7f163c4a11628f55a4df523b3ef83604051610ecf9190611281565b60405180910390a35050565b6000818310610eea5781610eec565b825b905092915050565b6dffffffffffffffffffffffffffff80168211158015610f2457506dffffffffffffffffffffffffffff80168111155b610f63576040517f08c379a0000000000000000000000000000000000000000000000000000000008152600401610f5a90611681565b60405180910390fd5b81600660006101000a8154816dffffffffffffffffffffffffffff02191690836dffffffffffffffffffffffffffff160217905550806006600e6101000a8154816dffffffffffffffffffffffffffff02191690836dffffffffffffffffffffffffffff160217905550600064010000000042610fe091906116a1565b9050806006601c6101000a81548163ffffffff021916908363ffffffff160217905550505050565b600081519050919050565b600082825260208201905092915050565b60005b83811015611042578082015181840152602081019050611027565b60008484015250505050565b6000601f19601f8301169050919050565b600061106a82611008565b6110748185611013565b9350611084818560208601611024565b61108d8161104e565b840191505092915050565b600060208201905081810360008301526110b2818461105f565b905092915050565b60006dffffffffffffffffffffffffffff82169050919050565b6110dd816110ba565b82525050565b600063ffffffff82169050919050565b6110fc816110e3565b82525050565b600060608201905061111760008301866110d4565b61112460208301856110d4565b61113160408301846110f3565b949350505050565b600080fd5b600073ffffffffffffffffffffffffffffffffffffffff82169050919050565b60006111698261113e565b9050919050565b6111798161115e565b811461118457600080fd5b50565b60008135905061119681611170565b92915050565b6000819050919050565b6111af8161119c565b81146111ba57600080fd5b50565b6000813590506111cc816111a6565b92915050565b600080604083850312156111e9576111e8611139565b5b60006111f785828601611187565b9250506020611208858286016111bd565b9150509250929050565b60008115159050919050565b61122781611212565b82525050565b6000602082019050611242600083018461121e565b92915050565b6112518161115e565b82525050565b600060208201905061126c6000830184611248565b92915050565b61127b8161119c565b82525050565b60006020820190506112966000830184611272565b92915050565b6000806000606084860312156112b5576112b4611139565b5b60006112c386828701611187565b93505060206112d486828701611187565b92505060406112e5868287016111bd565b9150509250925092565b600060ff82169050919050565b611305816112ef565b82525050565b600060208201905061132060008301846112fc565b92915050565b6000806040838503121561133d5761133c611139565b5b600061134b85828601611187565b925050602061135c85828601611187565b9150509250929050565b60006020828403121561137c5761137b611139565b5b600061138a84828501611187565b91505092915050565b7f4e487b7100000000000000000000000000000000000000000000000000000000600052601160045260246000fd5b60006113cd8261119c565b91506113d88361119c565b92508282039050818111156113f0576113ef611393565b5b92915050565b7f4445583a20464f5242494444454e000000000000000000000000000000000000600082015250565b600061142c600e83611013565b9150611437826113f6565b602082019050919050565b6000602082019050818103600083015261145b8161141f565b9050919050565b600081519050611471816111a6565b92915050565b60006020828403121561148d5761148c611139565b5b600061149b84828501611462565b91505092915050565b60006114af8261119c565b91506114ba8361119c565b92508282026114c88161119c565b915082820484148315176114df576114de611393565b5b5092915050565b7f4e487b7100000000000000000000000000000000000000000000000000000000600052601260045260246000fd5b60006115208261119c565b915061152b8361119c565b92508261153b5761153a6114e6565b5b828204905092915050565b7f4445583a20494e53554646494349454e545f4c49515549444954595f4d494e5460008201527f4544000000000000000000000000000000000000000000000000000000000000602082015250565b60006115a2602283611013565b91506115ad82611546565b604082019050919050565b600060208201905081810360008301526115d181611595565b9050919050565b60006040820190506115ed6000830185611272565b6115fa6020830184611272565b9392505050565b600061160c8261119c565b91506116178361119c565b925082820190508082111561162f5761162e611393565b5b92915050565b7f4445583a204f564552464c4f5700000000000000000000000000000000000000600082015250565b600061166b600d83611013565b915061167682611635565b602082019050919050565b6000602082019050818103600083015261169a8161165e565b9050919050565b60006116ac8261119c565b91506116b78361119c565b9250826116c7576116c66114e6565b5b82820690509291505056fe4d696e696d616c6c7920566961626c6520446563656e7472616c697a65642045786368616e6765a264697066735822122014494992d1e43ed72a778174d4b6ac0990046365eb83a8ef9289be0ae16ac5cf64736f6c63430008110033a264697066735822122072c6ba8704255882050bfb288ba150f45b5b5d845054df433488dc69ee3f7f4064736f6c63430008110033",
  "linkReferences": {},
  "deployedLinkReferences": {}
}